:020000040800F2
:1000000078060020BD010008C5010008C7010008EE
:10001000C9010008CB010008CD0100080000000064
:10002000000000000000000000000000CF010008F8
:10003000D101000800000000D3010008D50100082C
:10004000D7010008D7010008D7010008D701000830
:10005000D7010008D7010008D7010008D701000820
:10006000D7010008D7010008D7010008D701000810
:10007000D7010008D7010008D7010008D701000800
:10008000D7010008D7010008D701000800000000D0
:10009000000000000000000000000000D701000880
:1000A000D7010008D7010008D7010008D7010008D0
:1000B000D7010008D7010008D7010008D7010008C0
:1000C000D7010008D7010008D7010008D7010008B0
:1000D000D7010008D7010008B9060008D7010008B9
:1000E000D7010008D7010008D70100080000000070
:1000F0000000000000000000000000000000000000
:1001000000000000000000000000000000000000EF
:100110000000000000000000D7010008D70100081F
:1001200000F002F800F03AF80AA090E8000C8244CF
:100130008344AAF10107DA4501D100F02FF8AFF2AC
:10014000090EBAE80F0013F0010F18BFFB1A43F0B5
:10015000010318472809000048090000103A24BF8D
:1001600078C878C1FAD8520724BF30C830C144BF1C
:1001700004680C607047000000230024002500265E
:10018000103A28BF78C1FBD8520728BF30C148BFFA
:100190000B6070471FB51FBD10B510BD00F031F8E2
:1001A0001146FFF7F7FF00F0ABFB00F04FF803B488
:1001B000FFF7F2FF03BC00F057F800000948804742
:1001C00009480047FEE7FEE7FEE7FEE7FEE7FEE739
:1001D000FEE7FEE7FEE7FEE704480549054A064B51
:1001E0007047000009050008210100087800002080
:1001F00078060020780200207802002070477047BF
:100200007047754600F02CF8AE4605006946534627
:1002100020F00700854618B020B5FFF7DDFFBDE8E8
:1002200020404FF000064FF000074FF000084FF05D
:10023000000B21F00701AC46ACE8C009ACE8C009EE
:10024000ACE8C009ACE8C0098D46704710B504465B
:10025000AFF300802046BDE81040FFF7A8BF0000C4
:10026000004870471400002001491820ABBEFEE78B
:10027000260002007047000010B54FF4165000F041
:10028000D3FAF02000F0DAF900BF0A48008800F045
:1002900040000028F9D00748001D0088C4B24FF480
:1002A000E13000F0C1FAF02C01D0012010BD032094
:1002B000FCE70000003801402DE9F04780460C467D
:1002C00015461E46DDE90897B8F1010F05D1FFF785
:1002D000D3FF032801D1BDE8F0871AE020780F4949
:1002E00000F020F8641C681EC5B200F0C3FA67B9BC
:1002F000B9F1000F09DD0A4800F025F83070761CCE
:10030000A9F1010000F0FF0903E0FF2F01D0781EE2
:10031000C7B2002DE2DC0120DDE700000000002074
:100320000800002000220BE000F0010313B1FF23BE
:100330000B7001E000230B70491C4010531CDAB213
:10034000082AF1DB704701460020002208E0401037
:100350000B78FF2B01D140F08000491C531CDAB20E
:10036000082AF4DB704700002B48006840F4803016
:100370002949086000BF2848006800F400300028C0
:10038000F9D0132025490860234840682249486075
:100390000846406840F4806048600846406848600D
:1003A0000846406820F4701048600846406820F411
:1003B000803048600846406820F4003048600846B5
:1003C000406840F48030486008464068486008460D
:1003D000406840F4E01048600846006840F08070D3
:1003E000086000BF0C48006800F000700028F9D0D9
:1003F0000948406820F00300074948600846406803
:1004000040F00200486000BF0348406800F00C0064
:100410000828F9D170470000001002400020024077
:1004200010B500F001F810BD0CB50020019000904F
:100430003348006840F480303149086000BF3048DC
:10044000006800F4003000900198401C0190009872
:1004500018B90198B0F5A06FF1D12948006800F4EF
:10046000003010B10120009001E0002000900098C1
:10047000012843D12348006840F01000214908605A
:100480000846006820F0030008600846006840F055
:10049000020008601A4840681949486008464068E8
:1004A00048600846406840F48060486008464068FC
:1004B00020F47C1048600846406840F4E81048602A
:1004C0000846006840F08070086000BF0C48006873
:1004D00000F000700028F9D00948406820F00300BF
:1004E000074948600846406840F00200486000BF85
:1004F0000348406800F00C000828F9D10CBD00004A
:10050000001002400020024010B51348006840F07F
:1005100001001149086008464068104908400E492A
:100520004860084600680E4908400B4908600846C4
:10053000006820F4802008600846406820F4FE002F
:1005400048604FF41F008860FFF76AFF4FF00060BB
:100550000449086010BD0000001002400000FFF8D0
:10056000FFFFF6FE08ED00E02248806940F480407D
:10057000204988610846806940F004008861084687
:10058000806940F0010088611B48006820F040004D
:10059000194908600846006840F080000860084675
:1005A000006840F0300008601448008840F00800FF
:1005B0001249088041F64C5010490C390880081D3A
:1005C000008840F02000091D08800846008840F09F
:1005D000400008800846008840F00800088008466F
:1005E000008840F0040008800846008840F400506D
:1005F0000880704700100240040801401438014090
:100600000B48806D20F0010009498865094808669B
:10061000094848660846806D40F0800088650548B6
:100620001030008840F040000249103108807047C7
:1006300000000240043801400800002000BF0549C6
:10064000098801F040010029F9D00249091D0880FC
:1006500070470000003801401348406940F0010035
:10066000114948611148406C20F001000F4948646D
:100670000F48C8640F4808650846406C40F01000F9
:1006800048640846406C40F0800048640846406C6E
:1006900040F00200486406481030008840F08000B6
:1006A00003491031088070470010024000000240EA
:1006B000043801400000002010B51D48008800F0FB
:1006C0002000002833D01A48001D0088412809D195
:1006D00018A000F09BF80D2000F08AF80A2000F026
:1006E00087F824E01248001D0088612809D113A072
:1006F00000F08CF80D2000F07BF80A2000F078F86C
:1007000015E00B48001D0088422809D10DA000F01B
:100710007DF80D2000F06CF80A2000F069F806E082
:100720000348001D0088722801D100F03DF910BD7A
:1007300000440040443130204F4E0000443131200D
:100740004F4E0000443132204F4E00002548C06912
:1007500040F400302349C8610846806940F0040035
:1007600088610846806940F0010088611E48006881
:1007700040F400601C4908600846006840F440707E
:1007800008600846006840F4804008600846006839
:1007900020F44050086040F2A93014490880081D38
:1007A000008840F00800091D08800846008840F0D5
:1007B000040008800846008840F40050088008467D
:1007C000008840F020000880262000F01F02012150
:1007D00091404209920002F1E022C2F8001100BFEC
:1007E000704700000010024000080140084400402B
:1007F00000BF0549098801F040010029F9D00249EC
:10080000091D0880704700000044004010B50246F2
:10081000002305E019465C1CE3B2505CFFF7E8FFDB
:10082000D05C0028F6D110BD0D49098821F00801DF
:100830000B4A11801146098821F0040111800949F1
:10084000B1FBF0F1121F1180111D098841F0080160
:10085000121D11801146098841F004011180704772
:100860000C38014000A24A04002100E0491C8142EA
:10087000FCD370472048406C20F001001E494864BA
:100880000846806D20F00100886508208864C865EE
:100890001A48008820F04000184908801748143092
:1008A000008820F04000154914310880084600886F
:1008B00040F0400008801048406C40F001000E49B4
:1008C00048640846806D40F00100886500BF0A4812
:1008D000006800F40830B0F5083FF8D106484068D9
:1008E00040F408300449486000BF0448008800F024
:1008F00040000028F9D07047000002400038014055
:10090000FFF732FDFFF730FEFFF720FFFFF7A4FEF1
:10091000FFF776FE03E000F003F8FFF7CDFEFAE7FD
:100920003EB500200290FF2000210B460222CDE9B7
:10093000001015A10120FFF7BFFC1448FFF794FF3A
:100940000220009002AB042211A101900120FFF7C8
:10095000B3FCBDF80800C0F307140F480078A042AC
:1009600011D00D4804700D49204600F059F80CA034
:10097000FFF74CFF0948FFF749FF0D20FFF738FF4D
:100980000A20FFF735FF3EBDCC44000080C3C901FB
:10099000CCBEFFFF0000000010000020110000206E
:1009A00074656D70200000003EB500200290FF20AD
:1009B00000210B460222CDE9001012A10120FFF711
:1009C0007BFC1148FFF750FF0220009002AB04228D
:1009D0000EA101900120FFF76FFCBDF80800C0F3E5
:1009E00007140C49204600F01BF80BA0FFF70EFF80
:1009F0000848FFF70BFF0D20FFF7FAFE0A20FFF76C
:100A0000F7FE3EBDCC44000080C3C901CCBEFFFF51
:100A1000000000001100002054656D7020000000EF
:100A2000F0B502462AB93020087000204870084608
:100A3000F0BD0B46002400BF2646671CFCB20D4FDC
:100A400037F81600002503E06E1CF5B2161AB2B294
:100A50008242F9DA05F1300603F8016B022CEBDB78
:100A60000020187000E0491C08783028FBD00846A8
:100A7000DEE70000780A00080A0001009C0A00086E
:100A800000000020140000005C010008B00A00080B
:100A90001400002064060000780100080000000037
:100AA0000000000000000000000000000000000046
:04000005080001BD31
:00000001FF
