:020000040800F2
:1000000078200020550200085D0200085F02000809
:100010006102000863020008650200080000000099
:10002000000000000000000000000000BD0100080A
:100030006902000800000000010200085D0B0008D2
:100040006F0200086F0200086F0200086F020008CC
:100050006F0200086F0200086F0200086F020008BC
:100060006F0200086F0200086F0200086F020008AC
:100070006F0200086F0200086F0200086F0200089C
:100080006F0200086F0200086F0200080000000005
:100090000000000000000000000000006F020008E7
:1000A0006F0200086F0200086F0200086F0200086C
:1000B0006F0200086F0200086F0200086F0200085C
:1000C0006F0200086F0200086F0200086F0200084C
:1000D0006F0200086F0200080D0C00088D0C00086C
:1000E000110300086F0200086F0200080000000002
:1000F0000000000000000000000000000000000000
:1001000000000000000000000000000000000000EF
:1001100000000000000000006F0200086F020008ED
:1001200000F002F800F03AF80AA090E8000C8244CF
:100130008344AAF10107DA4501D100F02FF8AFF2AC
:10014000090EBAE80F0013F0010F18BFFB1A43F0B5
:10015000010318474022000060220000103A24BF2B
:1001600078C878C1FAD8520724BF30C830C144BF1C
:1001700004680C607047000000230024002500265E
:10018000103A28BF78C1FBD8520728BF30C148BFFA
:100190000B6070471FB51FBD10B510BD00F07DF896
:1001A0001146FFF7F7FF01F079FB00F09BF803B46D
:1001B000FFF7F2FF03BC00F0A3F80000224B196820
:1001C0000868B0E8F00F80F30988BFF36F8F4FF035
:1001D000000080F311884EF00D0E70470000000003
:1001E00006480068006880F3088862B661B6BFF30D
:1001F0004F8FBFF36F8F00DF00BF00BF08ED00E03F
:10020000EFF30980BFF36F8F0F4B1A6820E9F00FEF
:10021000106008B54FF0BF0080F31188BFF34F8F17
:10022000BFF36F8F01F01EFF4FF0000080F31188C5
:10023000BDE8084019680868B0E8F00F80F3098845
:10024000BFF36F8F704700BF0C000020EFF30580F5
:10025000704700000948804709480047FEE7FEE76D
:10026000FEE7FEE7FEE7FEE7FEE7FEE7FEE7FEE766
:1002700004480549054A064B70470000910B0008E9
:1002800021010008781A002078200020781C002026
:10029000781C0020704770477047754600F02CF8B6
:1002A000AE4605006946534620F00700854618B063
:1002B00020B5FFF7DDFFBDE820404FF000064FF00E
:1002C00000074FF000084FF0000B21F00701AC468B
:1002D000ACE8C009ACE8C009ACE8C009ACE8C009AA
:1002E0008D46704710B50446AFF300802046BDE848
:1002F0001040FFF75CBF000000487047141A002050
:1003000001491820ABBEFEE726000200704700003E
:100310000448006840F480600249086001200249F6
:1003200008707047140401409B0000202048406C76
:1003300020F001001E4948640846806D20F001004D
:10034000886508208864C8651A48008820F0400045
:100350001849088017481430008820F040001549DB
:10036000143108800846008840F04000088010489A
:10037000406C40F001000E4948640846806D40F032
:100380000100886500BF0A48006800F40830B0F535
:10039000083FF8D10648406840F4083004494860F6
:1003A00000BF0448008800F040000028F9D07047E2
:1003B00000000240003801402048C06920F00100E0
:1003C0001E49C8610846006B20F001000863082040
:1003D000086248631A48008820F0400018490880E5
:1003E00017481430008820F0400015491431088067
:1003F0000846008840F0400008801048C06940F07E
:1004000001000E49C8610846006B40F00100086316
:1004100000BF0A48006800F40870B0F5087FF8D102
:100420000648406840F408700449486000BF04482A
:10043000008800F040000028F9D07047000002401A
:10044000004800401A48806940F008001849886157
:100450000846806940F0040088611648006820F46E
:100460004020144908600846006840F48030086065
:100470000846006820F4400008600846006840F420
:10048000801008600846006820F040600860084658
:10049000006840F0807008600748006820F0406005
:1004A000054908600846006840F0807008607047A1
:1004B00000100240040C01400008014035488069EA
:1004C00040F00400334988610846806940F40070B8
:1004D00088613148006820F470002F4908600846A0
:1004E000006820F0704008602A48406840F40040EE
:1004F000284948602948006840F0040027490860FE
:1005000000BF2648006800F004000028F9D0234806
:10051000006840F00100214908600846006820F0AA
:10052000020008600846006840F460200860084641
:10053000006840F48010086018480830006840F0F7
:10054000380016490831086014482430006840F427
:10055000801012492431086010482C30006840F0A7
:1005600001000E492C3108600846006840F0040084
:1005700008600846006840F02000086008460068EF
:1005800040F0400008600846006840F080000860C5
:10059000704700000010024000080140082401409C
:1005A0000B48806D20F001000949886509480866FC
:1005B000094848660846806D40F080008865054817
:1005C0001030008840F04000024910310880704728
:1005D00000000240043801408200002013484069B6
:1005E00040F00100114948611148406C20F00100C1
:1005F0000F4948640F48C8640F4808650846406CB6
:1006000040F0100048640846406C40F080004864A8
:100610000846406C40F002004864064810300088EC
:1006200040F08000034910310880704700100240FC
:1006300000000240043801407A000020224880690E
:1006400040F48040204988610846806940F00400F9
:1006500088610846806940F0010088611B48006895
:1006600020F04000194908600846006840F080000A
:1006700008600846006840F03000086014480088B0
:1006800040F008001249088041F64C5010490C39DE
:100690000880081D008840F02000091D08800846D9
:1006A000008840F0400008800846008840F00800BC
:1006B00008800846008840F004000880084600884A
:1006C00040F40050088070470010024004080140C8
:1006D0001438014010B52148C06940F400301F496A
:1006E000C8610846806940F0040088610846806956
:1006F00040F0010088611A48006840F40060184921
:1007000008600846006840F44070086008460068C9
:1007100040F4804008600846006820F440500860BB
:1007200040F2A9300F490880081D008840F00800F9
:10073000091D08800846008840F00400088008462B
:10074000008840F4005008800846008840F02000EF
:100750000880262000F06CF810BD00000010024058
:10076000000801400844004010B52348C06940F427
:1007700080202149C8610846806940F008008861EE
:100780000846806940F0010088611C48006820F438
:1007900080601A4908600846006840F400600860FC
:1007A0000846006840F4407008600846006840F45D
:1007B000804008600846006820F44050086040F21D
:1007C000A9300F490880081D008840F00800091D65
:1007D00008800846008840F0040008800846008829
:1007E00040F4005008800846008840F0200008804F
:1007F000272000F01DF810BD00100240040C01403D
:10080000084800400948006840F480000749086033
:1008100000BF06480838006800F002000028F8D041
:1008200002484430006880B270470000082401404C
:1008300000F01F02012191404209920002F1E022E2
:10084000C2F800117047000070B50546012D16D1A1
:100850004FF4165000F0AEFAF02000F0C9F900BFD6
:100860001648008800F040000028F9D01348001D09
:100870000088C4B24FF4E13000F09CFA17E0032D79
:1008800015D14FF4165000F0B5FAF02000F022FA1E
:1008900000BF0B48008800F040000028F9D008484D
:1008A000001D0088C4B24FF4E13000F0A3FAF02C30
:1008B00001D0012070BD0320FCE70000003801409A
:1008C000004800402DE9F04781460C4615461E467B
:1008D000DDE909A8089FB9F1010F06D12046FFF70D
:1008E000B3FF032801D1BDE8F08738E0012C04D123
:1008F00028781D4900F040F805E0032C03D1287842
:100900001A4900F039F86D1C701EC6B2012C02D1D4
:10091000FFF70CFD03E0032C01D1FFF74DFDB8F10B
:10092000000F15D1BAF1000F12DD012C04D11048CF
:1009300000F033F8387005E0032C03D10D4800F0C7
:100940002CF838707F1CAAF1010000F0FF0A06E0C5
:10095000B8F1FF0F03D0A8F1010000F0FF08002E4E
:10096000C4DC0120BFE700007A0000208A000020DC
:10097000820000209200002000220BE000F0010322
:1009800013B1FF230B7001E000230B70491C4010D2
:10099000531CDAB2082AF1DB70470146002000221E
:1009A00008E040100B78FF2B01D140F08000491C7B
:1009B000531CDAB2082AF4DB704700002B480068A9
:1009C00040F480302949086000BF2848006800F4DE
:1009D00000300028F9D013202549086023484068DA
:1009E00022494860084640684860084640684860B8
:1009F0000846406820F4701048600846406820F4BB
:100A0000803048600846406820F40030486008465E
:100A1000406840F4803048600846406840F4003048
:100A200048600846406840F4801048600846006806
:100A300040F08070086000BF0C48006800F0007053
:100A40000028F9D00948406820F0030007494860B1
:100A50000846406840F00200486000BF0348406814
:100A600000F00C000828F9D1704700000010024087
:100A70000020024010B500F001F810BD0CB50020B8
:100A8000019000903348006840F48030314908609C
:100A900000BF3048006800F4003000900198401C0E
:100AA0000190009818B90198B0F5A06FF1D12948CC
:100AB000006800F4003010B10120009001E0002037
:100AC00000900098012843D12348006840F01000AE
:100AD000214908600846006820F0030008600846C5
:100AE000006840F0020008601A48406819494860F0
:100AF0000846406848600846406840F480604860A6
:100B00000846406820F47C1048600846406840F47D
:100B1000E81048600846006840F08070086000BF38
:100B20000C48006800F000700028F9D009484068BF
:100B300020F00300074948600846406840F0020082
:100B4000486000BF0348406800F00C000828F9D155
:100B50000CBD0000001002400020024010B500BF94
:100B6000BF2080F31188BFF34F8FBFF36F8F00BF9B
:100B700001F0FEFA18B14FF080500449086000BF40
:100B8000002080F3118800BF10BD000004ED00E0DC
:100B900010B51348006840F001001149086008468C
:100BA0004068104908400E494860084600680E49F0
:100BB00008400B4908600846006820F4802008605F
:100BC0000846406820F4FE0048604FF41F0088602B
:100BD000FFF750FF4FF000600449086010BD0000AF
:100BE000001002400000FFF8FFFFF6FE08ED00E0F5
:100BF00000BF0549098801F040010029F9D00249E8
:100C0000091D088070470000003801400D48008829
:100C100000F02000A8B10B48001D0088C1B20A48AE
:100C200002780078401C084B187008488154184618
:100C30000078401E0549085C0D2802D101200449B6
:100C400008707047004400406800002074190020BC
:100C50006A00002000BF0549098801F04001002911
:100C6000F9D00249091D0880704700000044004087
:100C700010B50246002305E019465C1CE3B2505C47
:100C8000FFF7E8FFD05C0028F6D110BD0D480088C2
:100C900000F02000A8B10B48001D0088C1B20A482E
:100CA00002780078401C084B187008488154184698
:100CB0000078401E0549085C0D2802D10120044936
:100CC000087070470048004069000020C4190020E7
:100CD0006B00002000BF0549098801F04001002990
:100CE000F9D00249091D0880704700000048004003
:100CF00010B50246002305E019465C1CE3B2505CC7
:100D0000FFF7E8FFD05C0028F6D110BD70B50446AF
:100D100000200D4908607CB100250BE0FFF772FD53
:100D2000094909680844084908600A2001F03AF9AD
:100D3000681CC5B2A542F1DB03480068B0FBF4F0C3
:100D40000149086080B270BDA000002070B5054662
:100D50000C4615480078012825D1284600F0DCFF14
:100D6000A11C88420CDB1148007848B91048006883
:100D700040F480500E49086001200C49087012E0D0
:100D8000284600F0C9FFA11E88420CDC0748007805
:100D9000012808D10648006840F0805004490860E6
:100DA00000200249087070BD9A0000205C000020FD
:100DB000100C01400D49098821F008010B4A1180EF
:100DC0001146098821F0040111800949B1FBF0F1B5
:100DD000121F1180111D098841F00801121D118098
:100DE0001146098841F00401118070470C38014018
:100DF00000A24A040D49098821F008010B4A11801C
:100E00001146098821F0040111800949B1FBF0F174
:100E1000121F1180111D098841F00801121D118057
:100E20001146098841F00401118070470C480040C8
:100E300000512502F0B504460B4600200646054643
:100E40000146024601E0681CC5B2585D0028FAD18F
:100E500001E0481CC1B2985C675CB84201D05029DF
:100E6000F7DB05E0501CC2B2481CC1B2701CC6B210
:100E7000985C675CB84201D1AA42F3DB012A0BD12E
:100E800000200646024601E0481CC1B2985C675C3F
:100E9000B84201D05029F7DB05E0501CC2B2481C13
:100EA000C1B2701CC6B2985C675CB84201D1AA425C
:100EB000F3DBB54201D10120F0BD0020FCE70000CA
:100EC00070B50446FAA12046FFF7B4FF48B1FB48CD
:100ED000006840F48050F9490860F9A0FFF708FF66
:100EE000EFE2FDA12046FFF7A5FF48B1F3480068F7
:100EF00040F08050F1490860F1A0FFF7F9FEE0E210
:100F0000F8A12046FFF796FF30B34FF47A7001F056
:100F100049F8F6A0FFF7ECFE4FF47A7001F042F8C2
:100F2000F4A0FFF7E5FE4FF4FA7001F03BF8F84843
:100F30000078FFF7EBFE0646F64900F071FF054624
:100F4000FFF7D6FEEAA0FFF7D3FE012001F02AF852
:100F50001A20FFF7BFFEB4E2EFA12046FFF76AFFB9
:100F60000028BDD1EEA12046FFF764FF18B1F0A024
:100F7000FFF7BEFEA5E2F4A12046FFF75BFF18B124
:100F80000120F44908709CE2F3A12046FFF752FFCC
:100F9000B8B10020EF4908704FF47A7001F002F800
:100FA000D4A0FFF7A5FE4FF4FA7000F0FBFFEEA00F
:100FB000FFF79EFE012000F0F5FF1A20FFF78AFEE2
:100FC0007FE2EEA12046FFF735FF00282DD04FF439
:100FD0007A7000F0E7FFC7A0FFF78AFE4FF4FA70BF
:100FE00000F0E0FFEAA0FFF783FEEE49EE4800883C
:100FF00000F016FF0546FFF77BFEBDA0FFF778FE69
:10100000EAA0FFF775FEE749EE48008800F008FF08
:101010000546FFF76DFEB6A0FFF76AFE012000F05F
:10102000C1FF1A20FFF756FE4BE2E7A12046FFF76B
:1010300001FF20B34FF47A7000F0B4FFADA0FFF7CA
:1010400057FE4FF4FA7000F0ADFFE3A0FFF750FE3B
:10105000D5490988193189B2D34A11800846D14946
:1010600000F0DEFE0546FFF743FEA1A0FFF740FEBD
:10107000012000F097FF1A20FFF72CFE21E2DFA1EC
:101080002046FFF7D7FE20B34FF47A7000F08AFFB6
:1010900098A0FFF72DFE4FF4FA7000F083FFCEA06A
:1010A000FFF726FEC0490988323189B2BE4A118055
:1010B0000846BC4900F0B4FE0546FFF719FE8CA0B7
:1010C000FFF716FE012000F06DFF1A20FFF702FE69
:1010D000F7E1CEA12046FFF7ADFE20B34FF47A70C2
:1010E00000F060FF83A0FFF703FE4FF4FA7000F0FA
:1010F00059FFB9A0FFF7FCFDAB490988193989B23E
:10110000A94A11800846A74900F08AFE0546FFF764
:10111000EFFD77A0FFF7ECFD012000F043FF1A2060
:10112000FFF7D8FDCDE1BDA12046FFF783FE20B338
:101130004FF47A7000F036FF6EA0FFF7D9FD4FF440
:10114000FA7000F02FFFA4A0FFF7D2FD964909889E
:10115000323989B2944A11800846924900F060FE03
:101160000546FFF7C5FD62A0FFF7C2FD012000F0B4
:1011700019FF1A20FFF7AEFDA3E1ACA12046FFF74F
:1011800059FE20B34FF47A7000F00CFF59A0FFF71E
:10119000AFFD4FF4FA7000F005FFA9A0FFF7A8FD1E
:1011A00088490988193189B2864A118008467D49E3
:1011B00000F036FE0546FFF79BFD4DA0FFF798FDBA
:1011C000012000F0EFFE1A20FFF784FD79E1A6A1CF
:1011D0002046FFF72FFE20B34FF47A7000F0E2FEB6
:1011E00044A0FFF785FD4FF4FA7000F0DBFE94A0F9
:1011F000FFF77EFD73490988323189B2714A118047
:101200000846684900F00CFE0546FFF771FD38A05E
:10121000FFF76EFD012000F0C5FE1A20FFF75AFD12
:101220004FE196A12046FFF705FE20B34FF47A70F8
:1012300000F0B8FE2FA0FFF75BFD4FF4FA7000F04E
:10124000B1FE7FA0FFF754FD5E490988193989B2C4
:101250005C4A11800846534900F0E2FD0546FFF75D
:1012600047FD23A0FFF744FD012000F09BFE1A205C
:10127000FFF730FD25E186A12046FFF7DBFDB0B189
:101280004FF47A7000F08EFE1AA0FFF731FD4FF494
:10129000FA7000F087FE6AA0FFF72AFD4949098825
:1012A000323989B2474A118008463E49FAE008E1DE
:1012B0004C49474854204F4E00000000100C01409C
:1012C00041542B434D4744413D2244454C20524517
:1012D0004144220D0A0000004C49474854204F4623
:1012E0004600000052494E4700000000415448307B
:1012F0000D0A000041542B434D47533D222B3739F3
:10130000363736323131313030220D0A00000000DC
:101310007E230008510000203E200D0A000000003E
:101320002B434D54493A2022534D222C00000000FB
:1013300041542B434D474C3D2252454320554E527C
:10134000454144220D0A0000534D4F4B45204F4B61
:1013500000000000A900002041524D454420535494
:10136000415455530000000041524D454420535410
:1013700041545553202D204F4B0D0A004745542012
:10138000534D4F4B45204C4556454C5300000000F3
:101390005468726573686F6C6420736D6F6B652041
:1013A00000000000A400002048000020437269747F
:1013B0006963616C2076616C756520736D6F6B6518
:1013C000200000004A0000205448524553484F4C2A
:1013D00044202B323500000043757272656E742014
:1013E00076616C756520227468726573686F6C64D1
:1013F0005F736D6F6B6522200000000054485245FA
:1014000053484F4C44202B3530000000544852457F
:1014100053484F4C44202D3235000000544852456B
:1014200053484F4C44202D3530000000435249545E
:101430004943414C20534D4F4B45202B3235000042
:1014400043757272656E742076616C7565202263D7
:101450007269746963616C5F76616C75655F736DE9
:101460006F6B652220000000435249544943414CB0
:1014700020534D4F4B45202B3530000043524954EB
:101480004943414C20534D4F4B45202D32350000F0
:10149000435249544943414C20534D4F4B45202D15
:1014A0003530000000F0BCFC0546FFF721FCAFF230
:1014B000C010FFF71DFC012000F074FD1A20FFF79B
:1014C00009FC70BD70B504465FA12046FFF7B2FC71
:1014D00090B16148006840F480505F490860081F7F
:1014E000006800F4805018B15CA0FFF7C1FBAAE0CF
:1014F0005FA0FFF7BDFBA6E061A12046FFF79AFCC5
:1015000098B15548006840F0805053490860081F62
:10151000006800F48050C04318B15DA0FFF7A8FB3D
:1015200091E053A0FFF7A4FB8DE05EA12046FFF7FA
:1015300081FC90B14848006840F40050464908607A
:10154000081F006800F4005018B15AA0FFF790FB84
:1015500079E047A0FFF78CFB75E05BA12046FFF721
:1015600069FC98B13C48006840F000503A49086076
:10157000081F006800F40050C04318B157A0FFF7DF
:1015800077FB60E03AA0FFF773FB5CE058A12046D0
:10159000FFF750FC30B101205749087057A0FFF702
:1015A00067FB50E058A12046FFF744FC30B1002013
:1015B0005149087057A0FFF75BFB44E058A1204653
:1015C000FFF738FC00283ED02348001F006800F4D5
:1015D000805010B154A0FFF74BFB1F48001F00685C
:1015E00000F4005010B153A0FFF742FB42480078CE
:1015F000012802D141A0FFF73BFB524800F08CFBD1
:101600000546514900F0E0FB50A0FFF731FB4E4882
:10161000FFF72EFB0D20FFF71DFB0A20FFF71AFB3B
:101620004D4800F079FB0546474900F0CDFB4BA043
:10163000FFF71EFB4448FFF71BFB0D20FFF70AFBDB
:101640000A20FFF707FB70BD56454E545F494E5FB9
:101650004245455F4F4E0000100C014056454E5428
:101660005F494E5F4245455F4F4E0D0A0000000046
:101670004552524F525F56454E540D0A000000002D
:1016800056454E545F494E5F4245455F4F464600C2
:1016900056454E545F494E5F4245455F4F46460DA5
:1016A0000A00000056454E545F4F55545F42454571
:1016B0005F4F4E0056454E545F4F55545F4245456F
:1016C0005F4F4E0D0A00000056454E545F4F555473
:1016D0005F4245455F4F46460000000056454E5468
:1016E0005F4F55545F4245455F4F46460D0A000027
:1016F0004155544F5F4F4E009A0000204155544FC2
:101700005F4F4E0D0A0000004155544F5F4F464653
:10171000000000004155544F5F4F46460D0A00003F
:101720005245515545535400464F524345445F4F2F
:101730004E0D0A00455848415553545F4F4E0D0A0F
:1017400000000000822300084C00002074656D70CA
:1017500020726967687420008A23000874656D70C0
:10176000206C65667420000010B50B4800780128D5
:1017700011D10A48FFF7A6FE002007490870084962
:10178000087000BF05E00021064A12681154411C90
:10179000C8B25028F7DB10BD6A0000207419002081
:1017A000680000206000002010B50B480078012878
:1017B00011D10A48FFF784FB002007490870084947
:1017C000087000BF05E00021064A12681154411C50
:1017D000C8B25028F7DB10BD6B000020C4190020F0
:1017E00069000020640000207047000070B50446C6
:1017F0001448008884421ADB13480078B8B913A053
:10180000FFF776FA4FF4FA7000F0CCFB16A0FFF762
:101810006FFA1B49204600F003FB0546FFF768FA04
:10182000012000F0BFFB1A20FFF754FA09E0154829
:101830000088844205DB0448007810B912A0FFF745
:1018400057FA70BD48000020A900002041542B43E6
:101850004D47533D222B373936373632313131300F
:1018600030220D0A00000000415454454E54494FA7
:101870004E0D0A534D4F4B452056414C55452000C7
:10188000510000204A000020415444222B373936B1
:101890003736323131313030220D0A001CB5FFF7B6
:1018A0008DF8FEF7CFFDFEF709FEFEF7C7FEFEF747
:1018B00011FFFEF759FFFEF791FEFEF771FE0020C3
:1018C000012103462022CDE9001009A1144800F0AF
:1018D0001FFC0020012103462022CDE9001011A1A8
:1018E0001F4800F015FC00F083FB00BFFEE700007E
:1018F00063616C6C696E6720766172696F757320C5
:1019000066756E6374696F6E7320776974686F753E
:10191000742074696D652064656C617973000000E2
:10192000D91F000863616C6C696E6720766172690B
:101930006F75732066756E6374696F6E7320616670
:101940007465722061206365727461696E207065D0
:1019500072696F64206F662074696D650000000015
:10196000691F000810B50446002005490880E0B250
:10197000FFF7CCF9024908800846008810BD000036
:101980009C0000202DE9F04105460E4616480768E8
:1019900016480068001D00F06FFA681C38B936B1AF
:1019A00012480168091D124800F0A4FA1AE07C19D7
:1019B0000E4800684460BC4207D20C480168091D0B
:1019C0000C48006800F07CFA0CE008480168091D2A
:1019D0000948006800F074FA08480068844201D29F
:1019E00006480460BDE8F081200000200C000020C3
:1019F0006019002014000020100000203C0000208E
:101A000010B5044600F082FA22480068401C2149C3
:101A100008602148006840B91F4804600846006813
:101A200001280DD100F0D4F80AE01C48006838B94C
:101A300019480068C06AE16A884201D81648046003
:101A400017480068401C164908601649E06A096892
:101A5000884202D91349E06A0860E16A01EB81011A
:101A6000114A02EB8100211D00F044FA00F060FAF7
:101A70000A48006868B108480068C06AE16A88429C
:101A800007D24FF0805009490860BFF34F8FBFF372
:101A90006F8F10BD1C0000200C00002028000020CB
:101AA0003800002024000020AC18002004ED00E0E5
:101AB00070B523E000F0CEFA1348006808B90120A1
:101AC00000E00020054600F0DFFBBDB900F01EFA83
:101AD0000D48C068C468201D00F0CEF90B480068AE
:101AE000401E0A4908600A480068401E084908600C
:101AF00000F01EFA204600F00DF800BF0448006810
:101B00000028D7D170BD00004C1900201C00002017
:101B10001800002010B50446206B00F019FA20468A
:101B200000F016FA10BD000000BFFFF7C1FF064825
:101B300000680128F9D94FF0805004490860BFF3CC
:101B40004F8FBFF36F8FF0E7AC18002004ED00E07B
:101B50002DE9FF5F80460E469146DDE90E7A109C26
:101B6000A9F10100216B01EB800B2BF0070B002585
:101B700007E0715D04F134004155705D00B902E089
:101B80006D1C102DF5D300BF002143200155052FFA
:101B900000D30427E762201D00F08FF904F118003C
:101BA00000F08BF92461C7F10500A0616462002098
:101BB000606484F8480041465846039A00F09AF859
:101BC0002060BAF1000F01D0CAF80040BDE8FF9FC5
:101BD00010B5002407E004EB84010F4A02EB8100FA
:101BE00000F05EF9641C052CF5D30C4800F058F9A0
:101BF0000B4800F055F90B4800F052F90A4800F084
:101C00004FF90A4800F04CF90448094908600448B3
:101C10000849086010BD0000AC1800201019002011
:101C200024190020381900204C19002060190020C8
:101C300010000020140000200A490968096809B949
:101C4000012100E0002121B14FF0FF31064A11606F
:101C500006E004490968C968C868034A4168116018
:101C600070470000100000203C00002000BFBF2093
:101C700080F31188BFF34F8FBFF36F8F00BF00BF9A
:101C8000FEE7000070B50446002504F0070020B10F
:101C900004F00700C0F10800044400F0DBF912482A
:101CA000006820B9114820F007000F49086010486B
:101CB0000068204441F2F871884210D20C48006854
:101CC00020440B490968884209D907480068084937
:101CD000096845180648006820440549086000F076
:101CE000D3FA284670BD000004000020B400002094
:101CF00000000020001F4FF080730360001F21F0E0
:101D000001030360001F034B036014380260203896
:101D1000704700006D1C00083EB50446FF200021FE
:101D20000091012324A2CDE9011019461846FEF7BF
:101D3000C9FDFF200021009108232246CDE90110B2
:101D400001210220FEF7BEFDFF20002100910123AA
:101D50001AA2CDE9011019460220FEF7B3FD4FF497
:101D60007A7000F01FF9FF2000210091012312A2D8
:101D7000CDE9011019461846FEF7A4FDFF20002109
:101D8000009108232246CDE9011001210220FEF72F
:101D900099FD012002210A4A0323CDE90021029086
:101DA00008A201460220FEF78DFD05480088C0F319
:101DB000071528463EBD0000550000004400000005
:101DC00078000020BEFFFF00F0B502462AB930209F
:101DD0000870002048700846F0BD0B46002400BF84
:101DE0002646671CFCB20D4F37F81600002503E0AD
:101DF0006E1CF5B2161AB2B28242F9DA05F130065B
:101E000003F8016B022CEBDB0020187000E0491C8A
:101E100008783028FBD00846DEE700007A23000867
:101E2000F0B502462AB930200870002048700846F4
:101E3000F0BD0B46002400BF2646671CFCB20D4FC8
:101E400037F81600002503E06E1CF5B2161AB2B280
:101E50008242F9DA05F1300603F8016B042CEBDB62
:101E60000020187000E0491C08783028FBD0084694
:101E7000DEE700007223000801460A69D1E901305B
:101E80009860D1E9010358605068884201D18868A0
:101E90005060002008611068401E10601068704794
:101EA00000F1080141604FF0FF31816000F108014D
:101EB000C16001610021016070470021016170472C
:101EC00010B502460B685C1C0CB9106907E002F102
:101ED000080000E04068446824689C42FAD94468DD
:101EE0004C604C68A160886041600A611468641CA1
:101EF000146010BD42684A6093688B6093685960B3
:101F00009160086103685B1C0360704700BFBF20DD
:101F100080F31188BFF34F8FBFF36F8F00BF03486B
:101F20000068401C0149086070470000080000205C
:101F300006480068401E054908600846006820B948
:101F4000002080F3118800BF00BF70470800002008
:101F50007047000003484FF0E02148610720086106
:101F6000704700003F19010014E06420FFF7FAFCFD
:101F70000446FFF73BFC0848FFF7CEFE0446FFF798
:101F800033FC0648FFF7C8FE0446FFF72DFC044863
:101F900000F008F8E9E70000822300088A2300081F
:101FA000C027090070B50446002544B100F052F87E
:101FB00000212046FFF7E6FC00F066F905463DB932
:101FC0004FF0805003490860BFF34F8FBFF36F8F0E
:101FD00070BD000004ED00E007E0FFF7C5FBFFF770
:101FE000E3FB1B210148FEF7B1FEF6E78A23000858
:101FF0001CB5114800210B462022CDE900100FA18D
:10200000104800F085F80446012C14D100BFBF2011
:1020100080F31188BFF34F8FBFF36F8F00BF4FF076
:10202000FF3009490860012008490860002008497C
:10203000086000F053F81CBD4000002049444C45A6
:1020400000000000291B00083C00002028000020A0
:102050002000002002480068401C014908607047C9
:10206000440000201848006818B101201749086092
:1020700028E00020154908601548016800E0491E65
:1020800001EB8100134A52F8200008B9012000E05A
:1020900000200028F3D101EB81020E4B03EB8200FC
:1020A00042685268426000F108024368934202D1DC
:1020B0004268526842604268D268074B1A6004481E
:1020C000016000BF70470000440000203000002085
:1020D00024000020AC1800200C00002010B50A4895
:1020E000006840F47F00084908600846006840F036
:1020F0007F400860FFF72EFF002004490860FEF7CC
:102100006FF8002010BD000020ED00E00800002066
:102110002DE9FF4F85B0804689461746DDE912ABB1
:10212000B800FFF7AFFD064656B14C20FFF7AAFDF9
:1021300004460CB1266304E03046FFF709FF00E0D7
:1021400000247CB10020CDE900ABCDE902403A4645
:1021500049464046089BFFF7FBFC2046FFF750FC32
:10216000012501E04FF0FF35284609B0BDE8F08FAA
:102170002DE9F041002739480068002862D138482D
:102180000068451C364805608DB93648D0F8008097
:1021900035480068334908603348C0F80080334848
:1021A0000068401C31490860FFF746FD00BF304819
:1021B000006885423AD300BF2A480068006808B921
:1021C000012000E0002020B14FF0FF3028490860D6
:1021D0002BE024480068C068C4686668B54202D233
:1021E0002348066021E0201DFFF746FEA06A18B1D3
:1021F00004F11800FFF740FE1E49E06A09688842B2
:1022000002D91C49E06A0860E16A01EB81011A4ABF
:1022100002EB8100211DFFF76DFE1849E06A096895
:10222000C96A8842C8D30127C6E700BF13480068BF
:10223000C06A00EB8000104951F82000012800D945
:10224000012704E00E480068401C0D4908600D4855
:10225000006800B101273846BDE8F0814400002045
:102260002000002010000020140000203400002076
:102270003C00002024000020AC1800200C000020AE
:102280002C0000203000002070B500240026FFF74D
:102290003DFE2E480068401E2C4908600846006834
:1022A00000284ED12A48006800284AD023E0294857
:1022B000C068C46804F11800FFF7DEFD201DFFF7B9
:1022C000DBFD2549E06A0968884202D92249E06AB3
:1022D0000860E16A01EB8101204A02EB8100211DC7
:1022E000FFF708FE1E49E06A0968C96A884202D3FE
:1022F00001201C4908601748006808B9012000E067
:1023000000200028D3D00CB1FFF796FC16480568D2
:1023100065B100BFFFF72CFF10B101201149086023
:102320006D1E002DF6D100200F4908600D48006891
:1023300038B1012630070D490860BFF34F8FBFF356
:102340006F8FFFF7F5FD304670BD000044000020A0
:102350001C0000203819002024000020AC180020A8
:102360000C000020300000202C00002004ED00E0D4
:102370000200E80364000A0001000A000100640092
:10238000881328FF07213317043F28FFA8CA3217F4
:1023900003960000B423000800000020AC000000F9
:1023A0005C01000860240008AC000020CC1F000085
:1023B000780100080000000000000000AAAAAAAAF4
:1023C000000000000000000000000000000000000D
:1023D00000000000000000000000000000000000FD
:1023E00000000000000000000000000000000000ED
:1023F000000000000000000000000000BC02EE022F
:1024000000000000000000000000000000000000CC
:102410000000000074190020C41900200000000012
:1024200000000000000000000000000000000000AC
:10243000000000000000000000000000000000009C
:10244000000000000000000000000000000000008C
:10245000000000000000000000000000000000007C
:040000050800025598
:00000001FF
