:020000040800F2
:10000000F01F0020550200085D0200085F02000892
:100010006102000863020008650200080000000099
:10002000000000000000000000000000BD0100080A
:10003000690200080000000001020008DD0B000852
:100040006F0200086F0200086F0200086F020008CC
:100050006F0200086F0200086F0200086F020008BC
:100060006F0200086F0200086F0200086F020008AC
:100070006F0200086F0200086F0200086F0200089C
:100080006F0200086F0200086F0200080000000005
:100090000000000000000000000000006F020008E7
:1000A0006F0200086F0200086F0200086F0200086C
:1000B0006F0200086F0200086F0200086F0200085C
:1000C0006F0200086F0200086F0200086F0200084C
:1000D0006F0200086F0200088D0C00086F02000814
:1000E000110300086F0200086F0200080000000002
:1000F0000000000000000000000000000000000000
:1001000000000000000000000000000000000000EF
:1001100000000000000000006F0200086F020008ED
:1001200000F002F800F03AF80AA090E8000C8244CF
:100130008344AAF10107DA4501D100F02FF8AFF2AC
:10014000090EBAE80F0013F0010F18BFFB1A43F0B5
:1001500001031847CC190000EC190000103A24BF25
:1001600078C878C1FAD8520724BF30C830C144BF1C
:1001700004680C607047000000230024002500265E
:10018000103A28BF78C1FBD8520728BF30C148BFFA
:100190000B6070471FB51FBD10B510BD00F07DF896
:1001A0001146FFF7F7FF00F0A7FE00F09BF803B43D
:1001B000FFF7F2FF03BC00F0A3F80000224B196820
:1001C0000868B0E8F00F80F30988BFF36F8F4FF035
:1001D000000080F311884EF00D0E70470000000003
:1001E00006480068006880F3088862B661B6BFF30D
:1001F0004F8FBFF36F8F00DF00BF00BF08ED00E03F
:10020000EFF30980BFF36F8F0F4B1A6820E9F00FEF
:10021000106008B54FF0BF0080F31188BFF34F8F17
:10022000BFF36F8F01F062FA4FF0000080F3118886
:10023000BDE8084019680868B0E8F00F80F3098845
:10024000BFF36F8F704700BF0C000020EFF30580F5
:10025000704700000948804709480047FEE7FEE76D
:10026000FEE7FEE7FEE7FEE7FEE7FEE7FEE7FEE766
:1002700004480549054A064B70470000110C000868
:1002800021010008F0190020F01F0020F01B0020C1
:10029000F01B0020704770477047754600F02CF83F
:1002A000AE4605006946534620F00700854618B063
:1002B00020B5FFF7DDFFBDE820404FF000064FF00E
:1002C00000074FF000084FF0000B21F00701AC468B
:1002D000ACE8C009ACE8C009ACE8C009ACE8C009AA
:1002E0008D46704710B50446AFF300802046BDE848
:1002F0001040FFF75CBF00000048704790190020D5
:1003000001491820ABBEFEE726000200704700003E
:100310000448006840F480600249086001200249F6
:1003200008707047140401408C0000202048406C85
:1003300020F001001E4948640846806D20F001004D
:10034000886508208864C8651A48008820F0400045
:100350001849088017481430008820F040001549DB
:10036000143108800846008840F04000088010489A
:10037000406C40F001000E4948640846806D40F032
:100380000100886500BF0A48006800F40830B0F535
:10039000083FF8D10648406840F4083004494860F6
:1003A00000BF0448008800F040000028F9D07047E2
:1003B00000000240003801402048C06920F00100E0
:1003C0001E49C8610846006B20F001000863082040
:1003D000086248631A48008820F0400018490880E5
:1003E00017481430008820F0400015491431088067
:1003F0000846008840F0400008801048C06940F07E
:1004000001000E49C8610846006B40F00100086316
:1004100000BF0A48006800F40870B0F5087FF8D102
:100420000648406840F408700449486000BF04482A
:10043000008800F040000028F9D07047000002401A
:10044000004800400848806940F00800064988617B
:100450000648006820F44020044908600846006807
:1004600040F480300860704700100240040C0140E6
:100470001848806940F0080016498861084680697C
:1004800040F0010088618915134801611348006834
:1004900040F480601149086010480830006840F45A
:1004A00080600E49083108600C480C38006840F440
:1004B00080600A490C390860282000F01F020121E1
:1004C00091404209920002F1E022C2F8001100BFFF
:1004D0007047000000100240000001400C04014081
:1004E0002848806940F004002649886108468069F0
:1004F00040F4007088612448006820F470002249AC
:1005000008602048406840F400401E4948601F4889
:10051000006840F004001D49086000BF1B480068E7
:1005200000F004000028F9D01848006840F00100ED
:10053000164908600846006820F002000860084676
:10054000006840F4602008600846006840F48010AD
:1005500008600E480830006840F038000B49083148
:1005600008600A482430006820F4700007492431EC
:10057000086006482C30006840F0100003492C3118
:100580000860704700100240000801400824014044
:100590000B48806D20F0010009498865094808660C
:1005A000094848660846806D40F080008865054827
:1005B0001030008840F04000024910310880704738
:1005C00000000240043801407400002013484069D4
:1005D00040F00100114948611148406C20F00100D1
:1005E0000F4948640F48C8640F4808650846406CC6
:1005F00040F0100048640846406C40F080004864B9
:100600000846406C40F002004864064810300088FC
:1006100040F080000349103108807047001002400C
:1006200000000240043801406C0000200B48006BC1
:1006300020F0010009490863094888630948C86334
:100640000846006B40F080000863054810300088C1
:1006500040F040000249103108807047000002401D
:1006600004480040840000201348406940F0010025
:10067000114948611148C06920F001000F49C86163
:100680000F4848620F4888620846C06940F0100071
:10069000C8610846C06940F08000C8610846C0696A
:1006A00040F00200C86106481030008840F0800029
:1006B00003491031088070470010024000000240DA
:1006C000044800407C0000202248806940F48040BB
:1006D000204988610846806940F004008861084626
:1006E000806940F0010088611B48006820F04000EC
:1006F000194908600846006840F080000860084614
:10070000006840F0300008601448008840F008009D
:100710001249088041F64C5010490C390880081DD8
:10072000008840F02000091D08800846008840F03D
:10073000400008800846008840F00800088008460D
:10074000008840F0040008800846008840F400500B
:10075000088070470010024004080140143801402E
:100760002548C06940F400302349C86108468069C3
:1007700040F0040088610846806940F0010088610B
:100780001E48006840F400601C4908600846006884
:1007900040F4407008600846006840F480400860FB
:1007A0000846006820F44050086040F2A93014491F
:1007B0000880081D008840F00800091D08800846D0
:1007C000008840F0040008800846008840F400508B
:1007D00008800846008840F020000880262000F0AD
:1007E0001F02012191404209920002F1E022C2F869
:1007F000001100BF704700000010024000080140D7
:10080000084400402248C06940F480202049C86163
:100810000846806940F0080088610846806940F019
:10082000010088611B48006820F480601949086055
:100830000846006840F4006008600846006840F41C
:10084000407008601448008840F008001249088091
:1008500040F6A66010490C390880081D008840F059
:100860002000091D08800846008840F040000880EC
:100870000846008840F0080008800846008840F0DC
:10088000040008800846008840F400500880704743
:1008900000100240040C0140144800400948006860
:1008A00040F480000749086000BF06480838006827
:1008B00000F002000028F8D002484430006880B2FE
:1008C000704700000824014070B50546012D16D17F
:1008D0004FF4165000F090FAF02000F0C9F900BF74
:1008E0001648008800F040000028F9D01348001D89
:1008F0000088C4B24FF4E13000F07EFA17E0032D17
:1009000015D14FF4165000F097FAF02000F046FA97
:1009100000BF0B48008800F040000028F9D00848CC
:10092000001D0088C4B24FF4E13000F085FAF02CCD
:1009300001D0012070BD0320FCE700000038014019
:10094000004800402DE9F04781460C4615461E46FA
:10095000DDE909A8089FB9F1010F06D12046FFF78C
:10096000B3FF032801D1BDE8F08738E0012C04D1A2
:1009700028781D4900F040F805E0032C03D12878C1
:100980001A4900F039F86D1C701EC6B2012C02D154
:10099000FFF7CCFC03E0032C01D1FFF70DFDB8F10C
:1009A000000F15D1BAF1000F12DD012C04D110484F
:1009B00000F033F8387005E0032C03D10D4800F047
:1009C0002CF838707F1CAAF1010000F0FF0A06E045
:1009D000B8F1FF0F03D0A8F1010000F0FF08002ECE
:1009E000C4DC0120BFE700006C0000207C00002078
:1009F000740000208400002000220BE000F00103BE
:100A000013B1FF230B7001E000230B70491C401051
:100A1000531CDAB2082AF1DB70470146002000229D
:100A200008E040100B78FF2B01D140F08000491CFA
:100A3000531CDAB2082AF4DB704700002B48006828
:100A400040F480302949086000BF2848006800F45D
:100A500000300028F9D01320254908602348406859
:100A60002249486008464068486008464068486037
:100A70000846406820F4701048600846406820F43A
:100A8000803048600846406820F4003048600846DE
:100A9000406840F4803048600846406840F40030C8
:100AA00048600846406840F4801048600846006886
:100AB00040F08070086000BF0C48006800F00070D3
:100AC0000028F9D00948406820F003000749486031
:100AD0000846406840F00200486000BF0348406894
:100AE00000F00C000828F9D1704700000010024007
:100AF0000020024010B500F001F810BD0CB5002038
:100B0000019000903348006840F48030314908601B
:100B100000BF3048006800F4003000900198401C8D
:100B20000190009818B90198B0F5A06FF1D129484B
:100B3000006800F4003010B10120009001E00020B6
:100B400000900098012843D12348006840F010002D
:100B5000214908600846006820F003000860084644
:100B6000006840F0020008601A484068194948606F
:100B70000846406848600846406840F48060486025
:100B80000846406820F47C1048600846406840F4FD
:100B9000E81048600846006840F08070086000BFB8
:100BA0000C48006800F000700028F9D0094840683F
:100BB00020F00300074948600846406840F0020002
:100BC000486000BF0348406800F00C000828F9D1D5
:100BD0000CBD0000001002400020024010B500BF14
:100BE000BF2080F31188BFF34F8FBFF36F8F00BF1B
:100BF00000F006FE18B14FF080500449086000BFB5
:100C0000002080F3118800BF10BD000004ED00E05B
:100C100010B51348006840F001001149086008460B
:100C20004068104908400E494860084600680E496F
:100C300008400B4908600846006820F480200860DE
:100C40000846406820F4FE0048604FF41F008860AA
:100C5000FFF750FF4FF000600449086010BD00002E
:100C6000001002400000FFF8FFFFF6FE08ED00E074
:100C700000BF0549098801F040010029F9D0024967
:100C8000091D0880704700000038014010B5244855
:100C900000F058F82248007861280FD121480068F8
:100CA00040F480501F4908601FA000F069F80D2033
:100CB00000F058F80A2000F055F82FE018480078A6
:100CC00041280FD11AA000F05BF81648006840F0E8
:100CD0008050144908600D2000F044F80A2000F00C
:100CE00041F81BE00E480078422809D10EA000F020
:100CF00047F80D2000F036F80A2000F033F80DE038
:100D000007480078722809D1FF200B4908700B486A
:100D100000F03CFB0A48008800F034F910BD0000E8
:100D20005C190020100C0140443132204F4E00006D
:100D3000443132204F4646004A0000205C0000202B
:100D4000021A00080021064A128802F020022AB185
:100D5000034A121D128842544A1CD1B27047000047
:100D60000044004000BF0549098801F04001002906
:100D7000F9D00249091D0880704700000044004076
:100D800010B50246002305E019465C1CE3B2505C36
:100D9000FFF7E8FFD05C0028F6D110BD00BF054981
:100DA000098801F040010029F9D00249091D088095
:100DB000704700000048004070B5044600200D490F
:100DC00008807CB100250BE0FFF768FD0949098820
:100DD0000844084908800A2000F01EFC681CC5B2BF
:100DE000A542F1DB0348008890FBF4F080B2014992
:100DF000088070BD920000200D49098821F008018B
:100E00000B4A11801146098821F00401118009491B
:100E1000B1FBF0F1121F1180111D098841F008018A
:100E2000121D11801146098841F00401118070479C
:100E30000C38014000A24A040D49098821F008013C
:100E40000B4A11801146098821F0040111800949DB
:100E5000B1FBF0F1121F1180111D098841F008014A
:100E6000121D11801146098841F00401118070475C
:100E70000C480040005125020EB502200621164AFA
:100E80000923CDE90021029014A203210120FFF7DC
:100E900059FD114903C9144A5040084306D00E4871
:100EA000D0E90010114B5940014313D1104800689C
:100EB00040F480500E4908600E48008800F0ACFBFA
:100EC0000B48006840F08050094908600021024A40
:100ED000116051600EBD00005000002033FFFFFF85
:100EE000FFFFFFFFFF000000D62806014EBA0501F4
:100EF000100C01405A0000201CB5FFF79FFDFFF7C2
:100F0000B7FAFFF79FFAFFF7EBFAFFF7DDFBFFF702
:100F100027FCFFF777FCFFF759FBFFF739FBFFF7DB
:100F2000A3FBFFF783FB0020012103462022CDE92C
:100F300000100E490E4800F033FC0020012103464A
:100F40002022CDE900100B490B4800F029FC0020BD
:100F5000012103462022CDE900100849084800F08D
:100F60001FFC00F089FB00BFFEE70000101A00081C
:100F7000651700086C1A00084D160008BC1A000816
:100F80006916000810B5044600200C490880E0B23C
:100F9000FFF712FF0949088009490848008800F056
:100FA00097FA08A0FFF7ECFE0548FFF7E9FE0D20D1
:100FB000FFF7D8FE0A20FFF7D5FE10BD8E000020F7
:100FC000900000204D513133352000002DE9F041D3
:100FD00005460E461648076816480068001D00F0D2
:100FE000A3FA681C38B936B112480168091D1248C5
:100FF00000F0D8FA1AE07C190E4800684460BC4240
:1010000007D20C480168091D0C48006800F0B0FACE
:101010000CE008480168091D0948006800F0A8FABA
:1010200008480068844201D206480460BDE8F081A7
:10103000200000200C00002048190020140000208F
:10104000100000203C00002010B5044600F0B6FA65
:1010500022480068401C214908602148006840B9C6
:101060001F4804600846006801280DD100F0D4F83C
:101070000AE01C48006838B919480068C06AE16A8B
:10108000884201D81648046017480068401C164979
:1010900008601649E06A0968884202D91349E06A83
:1010A0000860E16A01EB8101114A02EB8100211D18
:1010B00000F078FA00F094FA0A48006868B108482D
:1010C0000068C06AE16A884207D24FF0805009493F
:1010D0000860BFF34F8FBFF36F8F10BD1C0000205F
:1010E0000C000020280000203800002024000020F0
:1010F0009418002004ED00E070B523E000F0EEFA53
:101100001348006808B9012000E00020054600F0FF
:1011100003FCBDB900F052FA0D48C068C468201D38
:1011200000F002FA0B480068401E0A4908600A48AD
:101130000068401E0849086000F052FA204600F09E
:101140000DF800BF044800680028D7D170BD00002A
:10115000341900201C0000201800002010B504469F
:10116000206B00F04DFA204600F04AFA10BD000056
:1011700000BFFFF7C1FF064800680128F9D94FF00A
:10118000805004490860BFF34F8FBFF36F8FF0E7C3
:101190009418002004ED00E02DE9FF5F80460E4624
:1011A0009146DDE90E7A109CA9F10100216B01EB5B
:1011B000800B2BF0070B002507E0715D04F1340074
:1011C0004155705D00B902E06D1C102DF5D300BFD4
:1011D000002143200155052F00D30427E762201D7D
:1011E00000F0C3F904F1180000F0BFF92461C7F161
:1011F0000500A06164620020606484F848004146F4
:101200005846039A00F09AF82060BAF1000F01D016
:10121000CAF80040BDE8FF9F10B5002407E004EBCA
:1012200084010F4A02EB810000F092F9641C052C46
:10123000F5D30C4800F08CF90B4800F089F90B4805
:1012400000F086F90A4800F083F90A4800F080F9B6
:1012500004480949086004480849086010BD0000B6
:1012600094180020F81800200C19002020190020E4
:10127000341900204819002010000020140000201C
:101280000A490968096809B9012100E0002121B172
:101290004FF0FF31064A116006E004490968C96849
:1012A000C868034A416811607047000010000020C0
:1012B0003C00002000BFBF2080F31188BFF34F8F98
:1012C000BFF36F8F00BF00BFFEE7000070B504469C
:1012D000002504F0070020B104F00700C0F1080069
:1012E000044400F0FBF91248006820B9114820F0CE
:1012F00007000F49086010480068204441F2F87167
:10130000884210D20C48006820440B490968884282
:1013100009D907480068084909684518064800685F
:1013200020440549086000F0F7FA284670BD000027
:10133000040000209C00002000000020001F4FF04F
:1013400080730360001F21F001030360001F034B43
:10135000036014380260203870470000B51200089E
:101360000EB500200821054A0923CDE9002102908D
:1013700003A201210846FFF7E5FA0EBD5000002048
:1013800033FFFFFFFFFFFFFFFF0000003EB50546F4
:10139000FF200021009101232FA2CDE90110194661
:1013A0001846FFF7CFFAFF200021009108232A46B4
:1013B000CDE9011001210220FFF7C4FAFF2000212E
:1013C0000091012325A2CDE9011019460220FFF763
:1013D000B9FA4FF47A7000F01FF9FF200021009154
:1013E00001231DA2CDE9011019461846FFF7AAFAFC
:1013F000FF200021009108232A46CDE90110012198
:101400000220FFF79FFA0220154ACDE900200323AE
:1014100014A201210290FFF795FA11480088C0F349
:10142000071411480078A04203D10F480078FF2824
:1014300011D10E49204600F01FF80DA0FFF7A0FCC7
:101440000A48FFF79DFC0D20FFF78CFC0A20FFF7F0
:1014500089FC054804703EBD5500000044000000B2
:1014600048000020BEFFFF004A0000205800002076
:1014700074656D7020000000F0B502462AB9302076
:101480000870002048700846F0BD0B46002400BFDD
:101490002646671CFCB20D4F37F81600002503E006
:1014A0006E1CF5B2161AB2B28242F9DA05F13006B4
:1014B00003F8016B022CEBDB0020187000E0491CE4
:1014C00008783028FBD00846DEE70000041A000840
:1014D000F0B502462AB9302008700020487008464E
:1014E000F0BD0B46002400BF2646671CFCB20D4F22
:1014F00037F81600002503E06E1CF5B2161AB2B2DA
:101500008242F9DA05F1300603F8016B042CEBDBBB
:101510000020187000E0491C08783028FBD00846ED
:10152000DEE70000081A000801460A69D1E9013027
:101530009860D1E9010358605068884201D18868F9
:101540005060002008611068401E106010687047ED
:1015500000F1080141604FF0FF31816000F10801A6
:10156000C160016100210160704700210161704785
:1015700010B502460B685C1C0CB9106907E002F15B
:10158000080000E04068446824689C42FAD9446836
:101590004C604C68A160886041600A611468641CFA
:1015A000146010BD42684A6093688B60936859600C
:1015B0009160086103685B1C0360704700BFBF2037
:1015C00080F31188BFF34F8FBFF36F8F00BF0348C5
:1015D0000068401C014908607047000008000020B6
:1015E00006480068401E054908600846006820B9A2
:1015F000002080F3118800BF00BF70470800002062
:101600007047000003484FF0E0214861072008615F
:10161000704700003F19010070B50446002544B131
:1016200000F05CF800212046FFF7D0FC00F074F9D0
:1016300005463DB94FF0805003490860BFF34F8F16
:10164000BFF36F8F70BD000004ED00E000BF0548E0
:1016500000780028FBD0FFF70FFC0020014908703C
:10166000F5E700008C00002005E0FFF779FE40F66A
:10167000B830FFF7D1FFF8E71CB5114800210B4641
:101680002022CDE900100FA1104800F089F804468F
:10169000012C14D100BFBF2080F31188BFF34F8FFE
:1016A000BFF36F8F00BF4FF0FF3009490860012082
:1016B0000849086000200849086000F057F81CBD80
:1016C0004000002049444C45000000007111000812
:1016D0003C00002028000020200000200248006874
:1016E000401C014908607047440000201848006809
:1016F00018B101201749086028E00020154908604A
:101700001548016800E0491E01EB8100134A52F8B8
:10171000200008B9012000E000200028F3D101EBEF
:1017200081020E4B03EB820042685268426000F176
:1017300008024368934202D142685268426042689C
:10174000D268074B1A600448016000BF7047000070
:1017500044000020300000202400002094180020C5
:101760000C00002001E0FFF791FAFCE710B50A48F1
:10177000006840F47F00084908600846006840F0AF
:101780007F400860FFF73EFF002004490860FEF735
:1017900027FD002010BD000020ED00E00800002023
:1017A0002DE9FF4F85B0804689461746DDE912AB2B
:1017B000B800FFF78BFD064656B14C20FFF786FDBB
:1017C00004460CB1266304E03046FFF719FF00E041
:1017D00000247CB10020CDE900ABCDE902403A46BF
:1017E00049464046089BFFF7D7FC2046FFF72CFCF4
:1017F000012501E04FF0FF35284609B0BDE8F08F24
:101800002DE9F041002739480068002862D13848A6
:101810000068451C364805608DB93648D0F8008010
:1018200035480068334908603348C0F800803348C1
:101830000068401C31490860FFF722FD00BF3048B6
:10184000006885423AD300BF2A480068006808B99A
:10185000012000E0002020B14FF0FF30284908604F
:101860002BE024480068C068C4686668B54202D2AC
:101870002348066021E0201DFFF756FEA06A18B13C
:1018800004F11800FFF750FE1E49E06A096888421B
:1018900002D91C49E06A0860E16A01EB81011A4A39
:1018A00002EB8100211DFFF77DFE1849E06A0968FF
:1018B000C96A8842C8D30127C6E700BF1348006839
:1018C000C06A00EB8000104951F82000012800D9BF
:1018D000012704E00E480068401C0D4908600D48CF
:1018E000006800B101273846BDE8F08144000020BF
:1018F00020000020100000201400002034000020F0
:101900003C00002024000020941800200C0000203F
:101910002C0000203000002070B500240026FFF7C6
:101920004DFE2E480068401E2C490860084600689D
:1019300000284ED12A48006800284AD023E02948D0
:10194000C068C46804F11800FFF7EEFD201DFFF722
:10195000EBFD2549E06A0968884202D92249E06A1C
:101960000860E16A01EB8101204A02EB8100211D40
:10197000FFF718FE1E49E06A0968C96A884202D367
:1019800001201C4908601748006808B9012000E0E0
:1019900000200028D3D00CB1FFF772FC1648056870
:1019A00065B100BFFFF72CFF10B10120114908609D
:1019B0006D1E002DF6D100200F4908600D4800680B
:1019C00038B1012630070D490860BFF34F8FBFF3D0
:1019D0006F8FFFF705FE304670BD00004400002009
:1019E0001C00002020190020240000209418002052
:1019F0000C000020300000202C00002004ED00E04E
:101A0000E80364000A000100E80364000A00010022
:101A1000D0BED0B1D180D0B0D0B1D0BED182D0BAFA
:101A2000D0B020D0BFD180D0B5D180D18BD0B2D0B2
:101A3000B0D0BDD0B8D0B92028D0B7D0B0D0BFD1A9
:101A400080D0BED181D0BED0B22920D0BED18220DC
:101A5000D09ED0A120416E64726F696420D0BFD047
:101A6000BE2055534152543200000000D0BED0B1C8
:101A7000D180D0B0D0B1D0BED182D0BAD0B02045C4
:101A80005854492028D0B2D0BDD0B5D188D0BDD0CF
:101A9000B5D0B3D0BE20D0BFD180D0B5D180D18B4E
:101AA000D0B2D0B0D0BDD0B8D18F2920D0BED18295
:101AB0002069427574746F6E00000000D0B2D18B43
:101AC000D0B7D0BED0B220D184D183D0BDD0BAD1CE
:101AD00086D0B8D0B920D187D0B5D180D0B5D0B715
:101AE00020D0BED0BFD180D0B5D0B4D0B5D0BBD17E
:101AF00091D0BDD0BDD18BD0B920D0BFD180D0BEC8
:101B0000D0BCD0B5D0B6D183D182D0BED0BA20D08F
:101B1000B2D180D0B5D0BCD0B5D0BDD0B800000017
:101B2000401B000800000020940000005C01000839
:101B3000D41B0008940000205C1F000078010008FE
:101B40000000000000000000AAAAAAAA00000000ED
:101B50000000000000000000000000000000000085
:101B60000000000000000000000000000000000075
:101B70000000000000000000000000000000000065
:101B80000000000000000000000000000000000055
:101B900000000000000000000000881328FF377DCF
:101BA0003317047128FF43BA321703940000000072
:101BB0000000000000000000000000000000000025
:101BC0000000000000000000000000000000000015
:041BD0000000000011
:040000050800025598
:00000001FF
