:020000040800F2
:1000000090070020550200085D0200085F0200080A
:100010006102000863020008650200080000000099
:10002000000000000000000000000000BD0100080A
:10003000690200080000000001020008FD06000837
:100040006F0200086F0200086F0200086F020008CC
:100050006F0200086F0200086F0200086F020008BC
:100060006F0200086F0200086F0200086F020008AC
:100070006F0200086F0200086F0200086F0200089C
:100080006F0200086F0200086F0200080000000005
:100090000000000000000000000000001103000844
:1000A0006F0200086F0200086F0200086F0200086C
:1000B0006F0200086F0200086F0200086F0200085C
:1000C0006F0200086F0200086F0200086F0200084C
:1000D0006F0200086F020008AD0700086F020008F9
:1000E0006F0200086F0200086F02000800000000A5
:1000F0000000000000000000000000000000000000
:1001000000000000000000000000000000000000EF
:1001100000000000000000006F0200086F020008ED
:1001200000F002F800F03AF80AA090E8000C8244CF
:100130008344AAF10107DA4501D100F02FF8AFF2AC
:10014000090EBAE80F0013F0010F18BFFB1A43F0B5
:1001500001031847700C0000900C0000103A24BFF7
:1001600078C878C1FAD8520724BF30C830C144BF1C
:1001700004680C607047000000230024002500265E
:10018000103A28BF78C1FBD8520728BF30C148BFFA
:100190000B6070471FB51FBD10B510BD00F07DF896
:1001A0001146FFF7F7FF00F087FB00F09BF803B460
:1001B000FFF7F2FF03BC00F0A3F80000224B196820
:1001C0000868B0E8F00F80F30988BFF36F8F4FF035
:1001D000000080F311884EF00D0E70470000000003
:1001E00006480068006880F3088862B661B6BFF30D
:1001F0004F8FBFF36F8F00DF00BF00BF08ED00E03F
:10020000EFF30980BFF36F8F0F4B1A6820E9F00FEF
:10021000106008B54FF0BF0080F31188BFF34F8F17
:10022000BFF36F8F00F090FC4FF0000080F3118857
:10023000BDE8084019680868B0E8F00F80F3098845
:10024000BFF36F8F704700BF04000020EFF30580FD
:10025000704700000948804709480047FEE7FEE76D
:10026000FEE7FEE7FEE7FEE7FEE7FEE7FEE7FEE766
:1002700004480549054A064B70470000310700084D
:100280002101000890010020900700209003002029
:1002900090030020704770477047754600F02CF8B7
:1002A000AE4605006946534620F00700854618B063
:1002B00020B5FFF7DDFFBDE820404FF000064FF00E
:1002C00000074FF000084FF0000B21F00701AC468B
:1002D000ACE8C009ACE8C009ACE8C009ACE8C009AA
:1002E0008D46704710B50446AFF300802046BDE848
:1002F0001040FFF75CBF0000004870472C01002051
:1003000001491820ABBEFEE726000200704700003E
:1003100010B54FF4FA7000F0F5FB0B48006840F49C
:100320000070094908600948006940F00050074919
:10033000086140F6B83000F0E5FB0448006940F47D
:1003400000500249086110BD140401400010014032
:100350002048406C20F001001E4948640846806D2A
:1003600020F00100886508208864C8651A48008864
:1003700020F040001849088017481430008820F009
:1003800040001549143108800846008840F04000BC
:1003900008801048406C40F001000E49486408464F
:1003A000806D40F00100886500BF0A48006800F4D5
:1003B0000830B0F5083FF8D10648406840F40830EE
:1003C0000449486000BF0448008800F0400000284D
:1003D000F9D07047000002400038014006488069AB
:1003E00040F01000044988610448406840F48010DF
:1003F00002494860704700000010024000100140B0
:100400001748806940F004001549886108468069F2
:1004100040F0010088610021124801611248006823
:1004200040F40070104908600F480830006840F43C
:1004300000700D49083108600B480C38006840F422
:10044000007009490C3908601720012181404209D8
:10045000920002F1E022C2F8001100BF70470000D4
:1004600000100240000001400C04014010B54FF4A0
:10047000165000F001FAF02000F08AF900BF0A4897
:10048000008800F040000028F9D00748001D0088CF
:10049000C4B24FF4E13000F0EFF9F02C01D00120AC
:1004A00010BD0320FCE70000003801402DE9F047B3
:1004B00080460C4615461E46DDE90897B8F1010F47
:1004C00005D1FFF7D3FF032801D1BDE8F0871AE07B
:1004D00020780F4900F020F8641C681EC5B2FFF7B1
:1004E00037FF67B9B9F1000F09DD0A4800F025F8B8
:1004F0003070761CA9F1010000F0FF0903E0FF2F26
:1005000001D0781EC7B2002DE2DC0120DDE700003B
:10051000510000205900002000220BE000F00103F0
:1005200013B1FF230B7001E000230B70491C401036
:10053000531CDAB2082AF1DB704701460020002282
:1005400008E040100B78FF2B01D140F08000491CDF
:10055000531CDAB2082AF4DB704700002B4800680D
:1005600040F480302949086000BF2848006800F442
:1005700000300028F9D0132025490860234840683E
:10058000224948600846406848600846406848601C
:100590000846406820F4701048600846406820F41F
:1005A000803048600846406820F4003048600846C3
:1005B000406840F4803048600846406840F40030AD
:1005C00048600846406840F480104860084600686B
:1005D00040F08070086000BF0C48006800F00070B8
:1005E0000028F9D00948406820F003000749486016
:1005F0000846406840F00200486000BF0348406879
:1006000000F00C000828F9D17047000000100240EB
:100610000020024010B500F001F810BD0CB500201C
:10062000019000903348006840F480303149086000
:1006300000BF3048006800F4003000900198401C72
:100640000190009818B90198B0F5A06FF1D1294830
:10065000006800F4003010B10120009001E000209B
:1006600000900098012843D12348006840F0100012
:10067000214908600846006820F003000860084629
:10068000006840F0020008601A4840681949486054
:100690000846406848600846406840F4806048600A
:1006A0000846406820F47C1048600846406840F4E2
:1006B000E81048600846006840F08070086000BF9D
:1006C0000C48006800F000700028F9D00948406824
:1006D00020F00300074948600846406840F00200E7
:1006E000486000BF0348406800F00C000828F9D1BA
:1006F0000CBD0000001002400020024010B500BFF9
:10070000BF2080F31188BFF34F8FBFF36F8F00BFFF
:1007100000F056FA18B14FF080500449086000BF4D
:10072000002080F3118800BF10BD000004ED00E040
:1007300010B51348006840F00100114908600846F0
:100740004068104908400E494860084600680E4954
:1007500008400B4908600846006820F480200860C3
:100760000846406820F4FE0048604FF41F0088608F
:10077000FFF750FF4FF000600449086010BD000013
:10078000001002400000FFF8FFFFF6FE08ED00E059
:1007900000BF0549098801F040010029F9D002494C
:1007A000091D0880704700000038014010B51D4841
:1007B000008800F02000002833D01A48001D00886F
:1007C000412809D118A000F049F80D2000F038F8B0
:1007D0000A2000F035F824E01248001D0088612846
:1007E00009D113A000F03AF80D2000F029F80A20F2
:1007F00000F026F815E00B48001D0088422809D1BA
:100800000DA000F02BF80D2000F01AF80A2000F0DF
:1008100017F806E00348001D0088722801D100F097
:10082000ADF810BD00440040443130204F4E000070
:10083000443131204F4E0000443132204F4E0000F1
:1008400000BF0549098801F040010029F9D002499B
:10085000091D0880704700000044004010B50246A2
:10086000002305E019465C1CE3B2505CFFF7E8FF8B
:10087000D05C0028F6D110BD0D49098821F008018F
:100880000B4A11801146098821F0040111800949A1
:10089000B1FBF0F1121F1180111D098841F0080110
:1008A000121D11801146098841F004011180704722
:1008B0000C38014000A24A04FFF750FEFFF7A0FDEC
:1008C000FFF78CFDFFF724FD00BFFEE72DE9F041A7
:1008D00005460E461648076816480068001D00F0D9
:1008E000B5F8681C38B936B112480168091D1248BC
:1008F00000F0DAF81AE07C190E4800684460BC4247
:1009000007D20C480168091D0C48006800F0B2F8D5
:100910000CE008480168091D0948006800F0AAF8C1
:1009200008480068844201D206480460BDE8F081AE
:100930001800002004000020180100200C000020F6
:1009400008000020340000200A490968096809B934
:10095000012100E0002121B14FF0FF31064A116072
:1009600006E004490968C968C868034A416811601B
:100970007047000008000020340000203EB5002031
:100980000290FF2000210B460222CDE9001013A1A6
:100990000120FFF78BFD4FF47A7000F0B3F80220CE
:1009A000009002AB04220EA101900120FFF77EFD12
:1009B000BDF80800C0F307140B49204600F01AF8F0
:1009C0000AA0FFF74BFF0848FFF748FF0D20FFF78D
:1009D00037FF0A20FFF734FF3EBD0000CC44000083
:1009E000CCBEFFFF000000005000002054656D7079
:1009F00020000000F0B502462AB93020087000201F
:100A000048700846F0BD0B46002400BF2646671C10
:100A1000FCB20D4F37F81600002503E06E1CF5B24E
:100A2000161AB2B28242F9DA05F1300603F8016B08
:100A3000022CEBDB0020187000E0491C08783028FD
:100A4000FBD00846DEE70000C00D000801460A6939
:100A5000D1E901309860D1E90103586050688842BB
:100A600001D188685060002008611068401E106045
:100A70001068704710B502460B685C1C0CB9106911
:100A800007E002F1080000E04068446824689C42E6
:100A9000FAD944684C604C68A160886041600A6182
:100AA0001468641C146010BD42684A6093688B60CF
:100AB000936859609160086103685B1C036070472C
:100AC00000BFBF2080F31188BFF34F8FBFF36F8F3C
:100AD00000BF03480068401C0149086070470000DF
:100AE0000000002006480068401E054908600846CE
:100AF000006820B9002080F3118800BF00BF704754
:100B00000000002070B50446002544B100F014F840
:100B100000212046FFF7DAFE00F0DEF805463DB979
:100B20004FF0805003490860BFF34F8FBFF36F8FC2
:100B300070BD000004ED00E002480068401C01495F
:100B4000086070473C0000201848006818B1012078
:100B50001749086028E00020154908601548016819
:100B600000E0491E01EB8100134A52F8200008B949
:100B7000012000E000200028F3D101EB81020E4BA0
:100B800003EB820042685268426000F10802436849
:100B9000934202D14268526842604268D268074B71
:100BA0001A600448016000BF704700003C0000204C
:100BB000280000201C000020640000200400002009
:100BC0002DE9F041002739480068002862D13848F3
:100BD0000068451C364805608DB93648D0F800805D
:100BE00035480068334908603348C0F8008033480E
:100BF0000068401C31490860FFF7A6FE00BF30487E
:100C0000006885423AD300BF2A480068006808B9E6
:100C1000012000E0002020B14FF0FF30284908609B
:100C20002BE024480068C068C4686668B54202D2F8
:100C30002348066021E0201DFFF708FFA06A18B1D5
:100C400004F11800FFF702FF1E49E06A09688842B4
:100C500002D91C49E06A0860E16A01EB81011A4A85
:100C600002EB8100211DFFF71FFF1849E06A0968A8
:100C7000C96A8842C8D30127C6E700BF1348006885
:100C8000C06A00EB8000104951F82000012800D90B
:100C9000012704E00E480068401C0D4908600D481B
:100CA000006800B101273846BDE8F0813C00002013
:100CB00018000020080000200C0000202C0000205C
:100CC000340000201C0000206400002004000020EC
:100CD000240000202800002070B500240026FFF723
:100CE000EFFE2E480068401E2C4908600846006848
:100CF00000284ED12A48006800284AD023E029481D
:100D0000C068C46804F11800FFF7A0FE201DFFF7BB
:100D10009DFE2549E06A0968884202D92249E06AB5
:100D20000860E16A01EB8101204A02EB8100211D8C
:100D3000FFF7BAFE1E49E06A0968C96A884202D311
:100D400001201C4908601748006808B9012000E02C
:100D500000200028D3D00CB1FFF7F6FD1648056837
:100D600065B100BFFFF72CFF10B1012011490860E9
:100D70006D1E002DF6D100200F4908600D48006857
:100D800038B1012630070D490860BFF34F8FBFF31C
:100D90006F8FFFF7A7FE304670BD00003C000020BB
:100DA00014000020F00000201C000020640000203F
:100DB00004000020280000202400002004ED00E0B2
:100DC0000A000100E40D000800000020640000009B
:100DD0005C010008480E0008640000202C07000099
:100DE00078010008AAAAAAAA0000000000000000DA
:100DF00000000000000000000000000000000000F3
:100E000000000000000000000000000000000000E2
:100E100000000000000000000000000000000000D2
:100E200000000000000000000000000000000000C2
:100E300000000000000000000000000000000000B2
:080E40000000000000000000AA
:040000050800025598
:00000001FF
