:020000040800F2
:1000000078200020550200085D0200085F02000809
:100010006102000863020008650200080000000099
:10002000000000000000000000000000BD0100080A
:10003000690200080000000001020008190B000816
:100040006F0200086F0200086F0200086F020008CC
:100050006F0200086F0200086F0200086F020008BC
:100060006F0200086F0200086F0200086F020008AC
:100070006F0200086F0200086F0200086F0200089C
:100080006F0200086F0200086F0200080000000005
:100090000000000000000000000000006F020008E7
:1000A0006F0200086F0200086F0200086F0200086C
:1000B0006F0200086F0200086F0200086F0200085C
:1000C0006F0200086F0200086F0200086F0200084C
:1000D0006F0200086F020008C90B0008490C0008F5
:1000E000110300086F0200086F0200080000000002
:1000F0000000000000000000000000000000000000
:1001000000000000000000000000000000000000EF
:1001100000000000000000006F0200086F020008ED
:1001200000F002F800F03AF80AA090E8000C8244CF
:100130008344AAF10107DA4501D100F02FF8AFF2AC
:10014000090EBAE80F0013F0010F18BFFB1A43F0B5
:1001500001031847B0210000D0210000103A24BF4D
:1001600078C878C1FAD8520724BF30C830C144BF1C
:1001700004680C607047000000230024002500265E
:10018000103A28BF78C1FBD8520728BF30C148BFFA
:100190000B6070471FB51FBD10B510BD00F07DF896
:1001A0001146FFF7F7FF01F0DFFA00F09BF803B408
:1001B000FFF7F2FF03BC00F0A3F80000224B196820
:1001C0000868B0E8F00F80F30988BFF36F8F4FF035
:1001D000000080F311884EF00D0E70470000000003
:1001E00006480068006880F3088862B661B6BFF30D
:1001F0004F8FBFF36F8F00DF00BF00BF08ED00E03F
:10020000EFF30980BFF36F8F0F4B1A6820E9F00FEF
:10021000106008B54FF0BF0080F31188BFF34F8F17
:10022000BFF36F8F01F0D6FE4FF0000080F311880E
:10023000BDE8084019680868B0E8F00F80F3098845
:10024000BFF36F8F704700BF0C000020EFF30580F5
:10025000704700000948804709480047FEE7FEE76D
:10026000FEE7FEE7FEE7FEE7FEE7FEE7FEE7FEE766
:1002700004480549054A064B704700004D0B00082D
:1002800021010008781A002078200020781C002026
:10029000781C0020704770477047754600F02CF8B6
:1002A000AE4605006946534620F00700854618B063
:1002B00020B5FFF7DDFFBDE820404FF000064FF00E
:1002C00000074FF000084FF0000B21F00701AC468B
:1002D000ACE8C009ACE8C009ACE8C009ACE8C009AA
:1002E0008D46704710B50446AFF300802046BDE848
:1002F0001040FFF75CBF000000487047141A002050
:1003000001491820ABBEFEE726000200704700003E
:100310000448006840F480600249086001200249F6
:1003200008707047140401409B0000202048406C76
:1003300020F001001E4948640846806D20F001004D
:10034000886508208864C8651A48008820F0400045
:100350001849088017481430008820F040001549DB
:10036000143108800846008840F04000088010489A
:10037000406C40F001000E4948640846806D40F032
:100380000100886500BF0A48006800F40830B0F535
:10039000083FF8D10648406840F4083004494860F6
:1003A00000BF0448008800F040000028F9D07047E2
:1003B00000000240003801402048C06920F00100E0
:1003C0001E49C8610846006B20F001000863082040
:1003D000086248631A48008820F0400018490880E5
:1003E00017481430008820F0400015491431088067
:1003F0000846008840F0400008801048C06940F07E
:1004000001000E49C8610846006B40F00100086316
:1004100000BF0A48006800F40870B0F5087FF8D102
:100420000648406840F408700449486000BF04482A
:10043000008800F040000028F9D07047000002401A
:10044000004800400D48806940F008000B49886171
:100450000B48006820F440200949086008460068FD
:1004600040F4803008600846006820F440000860CE
:100470000846006840F48010086070470010024091
:10048000040C01403248806940F004003049886122
:100490000846806940F4007088612E48006820F4A6
:1004A00070002C4908600846006820F07060086001
:1004B0002748406840F400402549486026480068C5
:1004C00040F004002449086000BF2348006800F0A1
:1004D00004000028F9D02048006840F001001E49BF
:1004E00008600846006820F00200086008460068BE
:1004F00040F4602008600846006840F480100860FE
:1005000015480830006840F0380013490831086089
:1005100011482430006840F480100F4924310860ED
:100520000D482C30006840F001000B492C31086068
:100530000846006840F0040008600846006840F083
:10054000400008600846006840F08000086070477E
:100550000010024000080140082401400B48806D53
:1005600020F001000949886509480866094848667D
:100570000846806D40F0800088650548103000888E
:1005800040F04000024910310880704700000240EE
:1005900004380140820000201348406940F0010007
:1005A000114948611148406C20F001000F4948642E
:1005B0000F48C8640F4808650846406C40F01000BA
:1005C00048640846406C40F0800048640846406C2F
:1005D00040F00200486406481030008840F0800077
:1005E00003491031088070470010024000000240AB
:1005F000043801407A0000202248806940F480409D
:10060000204988610846806940F0040088610846F6
:10061000806940F0010088611B48006820F04000BC
:10062000194908600846006840F0800008600846E4
:10063000006840F0300008601448008840F008006E
:100640001249088041F64C5010490C390880081DA9
:10065000008840F02000091D08800846008840F00E
:10066000400008800846008840F0080008800846DE
:10067000008840F0040008800846008840F40050DC
:1006800008807047001002400408014014380140FF
:1006900010B52148C06940F400301F49C8610846C0
:1006A000806940F0040088610846806940F00100DC
:1006B00088611A48006840F40060184908600846DC
:1006C000006840F4407008600846006840F48040CC
:1006D00008600846006820F44050086040F2A930E5
:1006E0000F490880081D008840F00800091D088097
:1006F0000846008840F0040008800846008840F45E
:10070000005008800846008840F02000088026201D
:1007100000F06CF810BD000000100240000801401D
:100720000844004010B52348C06940F480202149A6
:10073000C8610846806940F0080088610846806901
:1007400040F0010088611C48006820F480601A496C
:1007500008600846006840F40060086008460068C9
:1007600040F4407008600846006840F4804008602B
:100770000846006820F44050086040F2A9300F4954
:100780000880081D008840F00800091D0880084600
:10079000008840F0040008800846008840F40050BB
:1007A00008800846008840F020000880272000F0DC
:1007B0001DF810BD00100240040C01400848004024
:1007C0000948006840F480000749086000BF0648F7
:1007D0000838006800F002000028F8D002484430D1
:1007E000006880B2704700000824014000F01F023A
:1007F000012191404209920002F1E022C2F8001169
:100800007047000070B50546012D16D14FF4165003
:1008100000F0AEFAF02000F0C9F900BF16480088D9
:1008200000F040000028F9D01348001D0088C4B231
:100830004FF4E13000F09CFA17E0032D15D14FF48E
:10084000165000F0B5FAF02000F022FA00BF0B4875
:10085000008800F040000028F9D00848001D0088FA
:10086000C4B24FF4E13000F0A3FAF02C01D0012023
:1008700070BD0320FCE70000003801400048004044
:100880002DE9F04781460C4615461E46DDE909A8CC
:10089000089FB9F1010F06D12046FFF7B3FF0328E7
:1008A00001D1BDE8F08738E0012C04D128781D493A
:1008B00000F040F805E0032C03D128781A4900F035
:1008C00039F86D1C701EC6B2012C02D1FFF72EFD47
:1008D00003E0032C01D1FFF76FFDB8F1000F15D134
:1008E000BAF1000F12DD012C04D1104800F033F8EA
:1008F000387005E0032C03D10D4800F02CF8387057
:100900007F1CAAF1010000F0FF0A06E0B8F1FF0F1A
:1009100003D0A8F1010000F0FF08002EC4DC012084
:10092000BFE700007A0000208A000020820000203B
:100930009200002000220BE000F0010313B1FF231E
:100940000B7001E000230B70491C4010531CDAB2FD
:10095000082AF1DB704701460020002208E0401021
:100960000B78FF2B01D140F08000491C531CDAB2F8
:10097000082AF4DB704700002B48006840F4803000
:100980002949086000BF2848006800F400300028AA
:10099000F9D013202549086023484068224948605F
:1009A0000846406848600846406848600846406815
:1009B00020F4701048600846406820F48030486099
:1009C0000846406820F4003048600846406840F41B
:1009D000803048600846406840F40030486008466F
:1009E000406840F4801048600846006840F080701D
:1009F000086000BF0C48006800F000700028F9D0C3
:100A00000948406820F003000749486008464068EC
:100A100040F00200486000BF0348406800F00C004E
:100A20000828F9D170470000001002400020024061
:100A300010B500F001F810BD0CB500200190009039
:100A40003348006840F480303149086000BF3048C6
:100A5000006800F4003000900198401C019000985C
:100A600018B90198B0F5A06FF1D12948006800F4D9
:100A7000003010B10120009001E0002000900098AB
:100A8000012843D12348006840F010002149086044
:100A90000846006820F0030008600846006840F03F
:100AA000020008601A4840681949486008464068D2
:100AB00048600846406840F48060486008464068E6
:100AC00020F47C1048600846406840F4E810486014
:100AD0000846006840F08070086000BF0C4800685D
:100AE00000F000700028F9D00948406820F00300A9
:100AF000074948600846406840F00200486000BF6F
:100B00000348406800F00C000828F9D10CBD000033
:100B1000001002400020024010B500BFBF2080F34B
:100B20001188BFF34F8FBFF36F8F00BF01F0D8FA6A
:100B300018B14FF080500449086000BF002080F3D6
:100B4000118800BF10BD000004ED00E010B513488F
:100B5000006840F0010011490860084640681049EB
:100B600008400E494860084600680E4908400B4995
:100B700008600846006820F4802008600846406845
:100B800020F4FE0048604FF41F008860FFF750FF1C
:100B90004FF000600449086010BD000000100240E2
:100BA0000000FFF8FFFFF6FE08ED00E000BF05497A
:100BB000098801F040010029F9D00249091D088087
:100BC00070470000003801400D48008800F0200008
:100BD000A8B10B48001D0088C1B20A48027800780D
:100BE000401C084B18700848815418460078401E75
:100BF0000549085C0D2802D101200449087070479E
:100C00000044004068000020741900206A000020A1
:100C100000BF0549098801F040010029F9D00249C7
:100C2000091D0880704700000044004010B50246CE
:100C3000002305E019465C1CE3B2505CFFF7E8FFB7
:100C4000D05C0028F6D110BD0D48008800F02000CF
:100C5000A8B10B48001D0088C1B20A48027800788C
:100C6000401C084B18700848815418460078401EF4
:100C70000549085C0D2802D101200449087070471D
:100C80000048004069000020C41900206B000020CB
:100C900000BF0549098801F040010029F9D0024947
:100CA000091D0880704700000048004010B502464A
:100CB000002305E019465C1CE3B2505CFFF7E8FF37
:100CC000D05C0028F6D110BD70B5044600200D4957
:100CD00008607CB100250BE0FFF772FD0949096847
:100CE0000844084908600A2001F014F9681CC5B2DC
:100CF000A542F1DB03480068B0FBF4F0014908604D
:100D000080B270BDA000002070B505460C461548A5
:100D10000078012825D1284600F0BCFFA11C88429C
:100D20000CDB1148007848B91048006840F4805046
:100D30000E49086001200C49087012E0284600F0B6
:100D4000A9FFA11E88420CDC07480078012808D1C1
:100D50000648006840F080500449086000200249BD
:100D6000087070BD9A0000205C000020100C01404B
:100D70000D49098821F008010B4A118011460988A4
:100D800021F0040111800949B1FBF0F1121F11801B
:100D9000111D098841F00801121D118011460988B2
:100DA00041F00401118070470C38014000A24A0450
:100DB0000D49098821F008010B4A11801146098864
:100DC00021F0040111800949B1FBF0F1121F1180DB
:100DD000111D098841F00801121D11801146098872
:100DE00041F00401118070470C4800400051250279
:100DF000F0B504460B46002006460546014602466D
:100E000001E0681CC5B2585D0028FAD101E0481C19
:100E1000C1B2985C675CB84201D05029F7DB05E0AD
:100E2000501CC2B2481CC1B2701CC6B2985C675C50
:100E3000B84201D1AA42F3DB012A0BD100200646B9
:100E4000024601E0481CC1B2985C675CB84201D020
:100E50005029F7DB05E0501CC2B2481CC1B2701C1F
:100E6000C6B2985C675CB84201D1AA42F3DBB542D6
:100E700001D10120F0BD0020FCE7000070B5044660
:100E8000FAA12046FFF7B4FF48B1FB48006840F4E0
:100E90008050F9490860F9A0FFF708FFEDE2FDA1D5
:100EA0002046FFF7A5FF48B1F348006840F08050A6
:100EB000F1490860F1A0FFF7F9FEDEE2F8A1204653
:100EC000FFF796FF30B34FF47A7001F023F8F6A0E5
:100ED000FFF7ECFE4FF47A7001F01CF8F4A0FFF776
:100EE000E5FE4FF4FA7001F015F8F8480078FFF7C6
:100EF000EBFE0646F64900F051FF0546FFF7D6FE29
:100F0000EAA0FFF7D3FE012001F004F81A20FFF752
:100F1000BFFEB2E2EFA12046FFF76AFF0028BDD175
:100F2000EEA12046FFF764FF18B1F0A0FFF7BEFE68
:100F3000A3E2F4A12046FFF75BFF18B10120F449BA
:100F400008709AE2F3A12046FFF752FFB8B10020E3
:100F5000EF4908704FF47A7000F0DCFFD4A0FFF77F
:100F6000A5FE4FF4FA7000F0D5FFEEA0FFF79EFE4D
:100F7000012000F0CFFF1A20FFF78AFE7DE2EDA1ED
:100F80002046FFF735FF00282DD04FF47A7000F08F
:100F9000C1FFC7A0FFF78AFE4FF4FA7000F0BAFF56
:100FA000E9A0FFF783FEED49ED48008800F0F6FE6A
:100FB0000546FFF77BFEBDA0FFF778FEE9A0FFF72F
:100FC00075FEE649ED48008800F0E8FE0546FFF7AB
:100FD0006DFEB6A0FFF76AFE012000F09BFF1A200D
:100FE000FFF756FE49E2E6A12046FFF701FF20B3D6
:100FF0004FF47A7000F08EFFADA0FFF757FE4FF46C
:10100000FA7000F087FFE2A0FFF750FED44909888C
:10101000193189B2D24A11800846D04900F0BEFE8B
:101020000546FFF743FEA1A0FFF740FE012000F0B8
:1010300071FF1A20FFF72CFE1FE2DEA12046FFF70A
:10104000D7FE20B34FF47A7000F064FF98A0FFF74A
:101050002DFE4FF4FA7000F05DFFCDA0FFF726FEE5
:10106000BF490988323189B2BD4A11800846BB495F
:1010700000F094FE0546FFF719FE8CA0FFF716FE60
:10108000012000F047FF1A20FFF702FEF5E1CDA195
:101090002046FFF7ADFE20B34FF47A7000F03AFF20
:1010A00083A0FFF703FE4FF4FA7000F033FFB8A0FF
:1010B000FFF7FCFDAA490988193989B2A84A1180AD
:1010C0000846A64900F06AFE0546FFF7EFFD77A047
:1010D000FFF7ECFD012000F01DFF1A20FFF7D8FDFF
:1010E000CBE1BCA12046FFF783FE20B34FF47A701A
:1010F00000F010FF6EA0FFF7D9FD4FF4FA7000F07A
:1011000009FFA3A0FFF7D2FD95490988323989B2BA
:10111000934A11800846914900F040FE0546FFF7CA
:10112000C5FD62A0FFF7C2FD012000F0F3FE1A200A
:10113000FFF7AEFDA1E1ABA12046FFF759FE20B3BA
:101140004FF47A7000F0E6FE59A0FFF7AFFD4FF4C0
:10115000FA7000F0DFFEA8A0FFF7A8FD8749098814
:10116000193189B2854A118008467C4900F016FE83
:101170000546FFF79BFD4DA0FFF798FD012000F00D
:10118000C9FE1A20FFF784FD77E1A5A12046FFF7ED
:101190002FFE20B34FF47A7000F0BCFE44A0FFF79E
:1011A00085FD4FF4FA7000F0B5FE93A0FFF77EFDC9
:1011B00072490988323189B2704A118008466749FC
:1011C00000F0ECFD0546FFF771FD38A0FFF76EFD5E
:1011D000012000F09FFE1A20FFF75AFD4DE195A176
:1011E0002046FFF705FE20B34FF47A7000F092FE20
:1011F0002FA0FFF75BFD4FF4FA7000F08BFE7EA08E
:10120000FFF754FD5D490988193989B25B4A11809D
:101210000846524900F0C2FD0546FFF747FD23A0EE
:10122000FFF744FD012000F075FE1A20FFF730FDA6
:1012300023E185A12046FFF7DBFDB0B14FF47A70C2
:1012400000F068FE1AA0FFF731FD4FF4FA7000F0CD
:1012500061FE69A0FFF72AFD48490988323989B241
:10126000464A118008463D49F8E006E14C494748A6
:1012700054204F4E00000000100C014041542B43FD
:101280004D4744413D2244454C2052454144220DA6
:101290000A0000004C49474854204F4646000000D1
:1012A00052494E4700000000415448300D0A0000EA
:1012B00041542B434D47533D222B37393637363275
:1012C0003131313030220D0A00000000EE220008DA
:1012D000510000203E200D0A000000002B434D5419
:1012E000493A2022534D222C0000000041542B4348
:1012F0004D474C3D2252454320554E5245414422D4
:101300000D0A000047455420534D4F4B4500000047
:10131000A900002041524D45442053544154555397
:101320000000000041524D45442053544154555350
:101330000D0A000047455420534D4F4B45204C4566
:1013400056454C53000000005468726573686F6C1A
:101350006420736D6F6B652000000000A400002006
:1013600048000020437269746963616C2076616C87
:10137000756520736D6F6B65200000004A000020CA
:101380005448524553484F4C44202B3235000000FE
:1013900043757272656E742076616C756520227477
:1013A00068726573686F6C645F736D6F6B65222024
:1013B000000000005448524553484F4C44202B3500
:1013C000300000005448524553484F4C44202D32C1
:1013D000350000005448524553484F4C44202D35A9
:1013E00030000000435249544943414C20534D4F73
:1013F0004B45202B3235000043757272656E7420A8
:1014000076616C75652022637269746963616C5FD3
:1014100076616C75655F736D6F6B652220000000EF
:10142000435249544943414C20534D4F4B45202B87
:1014300035300000435249544943414C20534D4FED
:101440004B45202D32350000435249544943414C0D
:1014500020534D4F4B45202D3530000000F09EFCB1
:101460000546FFF723FCAFF2BC10FFF71FFC01207D
:1014700000F050FD1A20FFF70BFC70BD70B504465C
:101480005FA12046FFF7B4FC90B16148006840F4CA
:1014900080505F490860081F006800F4805018B150
:1014A0005CA0FFF7C3FBAAE05DA0FFF7BFFBA6E0CF
:1014B0005DA12046FFF79CFC98B15548006840F0BC
:1014C000805053490860081F006800F48050C043F2
:1014D00018B159A0FFF7AAFB91E051A0FFF7A6FBB6
:1014E0008DE059A12046FFF783FC90B14848006881
:1014F00040F4005046490860081F006800F400509E
:1015000018B155A0FFF792FB79E045A0FFF78EFBDD
:1015100075E055A12046FFF76BFC98B13C48006888
:1015200040F000503A490860081F006800F400507D
:10153000C04318B151A0FFF779FB60E038A0FFF776
:1015400075FB5CE051A12046FFF752FC30B1012051
:101550005049087050A0FFF769FB50E051A12046A8
:10156000FFF746FC30B100204A49087050A0FFF751
:101570005DFB44E051A12046FFF73AFC00283ED035
:101580002348001F006800F4805010B121A0FFF72D
:101590004DFB1F48001F006800F4005010B12EA042
:1015A000FFF744FB3B480078012802D13AA0FFF73F
:1015B0003DFB444800F06EFB0546434900F0C2FB8A
:1015C00042A0FFF733FB4048FFF730FB0D20FFF749
:1015D0001FFB0A20FFF71CFB3F4800F05BFB0546A2
:1015E000394900F0AFFB3DA0FFF720FB3648FFF77D
:1015F0001DFB0D20FFF70CFB0A20FFF709FB70BD58
:10160000464F524345445F56454E545F4F4E00008F
:10161000100C0140464F524345445F4F4E0D0A00A7
:101620004552524F520D0A00464F524345445F56B1
:10163000454E545F4F464600464F524345445F4F28
:1016400046460D0A00000000455848415553545F76
:1016500056454E545F4F4E00455848415553545FD0
:101660004F4E0D0A00000000455848415553545F45
:1016700056454E545F4F46460000000045584841CD
:101680005553545F4F46460D0A0000004155544FD4
:101690005F4F4E009A0000204155544F5F4F4E0D52
:1016A0000A0000004155544F5F4F464600000000BD
:1016B0004155544F5F4F46460D0A00005245515563
:1016C00045535400F22200084C00002074656D70F0
:1016D0002072696768742000FA22000874656D70D2
:1016E000206C65667420000010B50B480078012856
:1016F00011D10A48FFF7C2FE0020074908700849C7
:10170000087000BF05E00021064A12681154411C10
:10171000C8B25028F7DB10BD6A0000207419002001
:10172000680000206000002010B50B4800780128F8
:1017300011D10A48FFF7A2FB0020074908700849A9
:10174000087000BF05E00021064A12681154411CD0
:10175000C8B25028F7DB10BD6B000020C419002070
:1017600069000020640000201CB5FFF705F9FEF7B2
:1017700069FEFEF787FEFEF73FFFFEF789FFFEF7E3
:10178000D1FFFEF709FFFEF7E9FE00200121034625
:101790002022CDE9001009A1144800F071FC0020BE
:1017A000012103462022CDE9001011A11F4800F0BD
:1017B00067FC00F0D5FB00BFFEE7000063616C6CC6
:1017C000696E6720766172696F75732066756E63E6
:1017D00074696F6E7320776974686F7574207469AB
:1017E0006D652064656C617973000000491F000815
:1017F00063616C6C696E6720766172696F757320C6
:1018000066756E6374696F6E7320616674657220AD
:1018100061206365727461696E20706572696F64BE
:10182000206F662074696D6500000000E51E0008E9
:1018300010B50446002005490880E0B2FFF744FADD
:10184000024908800846008810BD00009C00002066
:101850002DE9F04105460E4616480768164800680F
:10186000001D00F0C7FA681C38B936B1124801688B
:10187000091D124800F0FCFA1AE07C190E480068B5
:101880004460BC4207D20C480168091D0C4800683E
:1018900000F0D4FA0CE008480168091D0948006806
:1018A00000F0CCFA08480068844201D2064804607F
:1018B000BDE8F081200000200C000020601900200D
:1018C00014000020100000203C00002010B5044649
:1018D00000F0DAFA22480068401C214908602148DB
:1018E000006840B91F4804600846006801280DD10F
:1018F00000F0D4F80AE01C48006838B919480068BC
:10190000C06AE16A884201D8164804601748006836
:10191000401C164908601649E06A0968884202D9E5
:101920001349E06A0860E16A01EB8101114A02EBA8
:101930008100211D00F09CFA00F0B8FA0A48006806
:1019400068B108480068C06AE16A884207D24FF06F
:10195000805009490860BFF34F8FBFF36F8F10BDF0
:101960001C0000200C00002028000020380000206F
:1019700024000020AC18002004ED00E070B523E046
:1019800000F020FB1348006808B9012000E00020A7
:10199000054600F031FCBDB900F076FA0D48C0688C
:1019A000C468201D00F026FA0B480068401E0A4952
:1019B00008600A480068401E0849086000F076FA8E
:1019C000204600F00DF800BF044800680028D7D179
:1019D00070BD00004C1900201C00002018000020E1
:1019E00010B50446206B00F071FA204600F06EFA44
:1019F00010BD000000BFFFF7C1FF064800680128C6
:101A0000F9D94FF0805004490860BFF34F8FBFF3FE
:101A10006F8FF0E7AC18002004ED00E02DE9FF5FC8
:101A200080460E469146DDE90E7A109CA9F1010030
:101A3000216B01EB800B2BF0070B002507E0715D9C
:101A400004F134004155705D00B902E06D1C102DA9
:101A5000F5D300BF002143200155052F00D30427F3
:101A6000E762201D00F0E7F904F1180000F0E3F947
:101A70002461C7F10500A06164620020606484F8FD
:101A8000480041465846039A00F09AF82060BAF19F
:101A9000000F01D0CAF80040BDE8FF9F10B5002438
:101AA00007E004EB84010F4A02EB810000F0B6F975
:101AB000641C052CF5D30C4800F0B0F90B4800F07D
:101AC000ADF90B4800F0AAF90A4800F0A7F90A4856
:101AD00000F0A4F90448094908600448084908606E
:101AE00010BD0000AC18002010190020241900209F
:101AF000381900204C190020601900201000002027
:101B0000140000200A490968096809B9012100E0A8
:101B1000002121B14FF0FF31064A116006E004496F
:101B20000968C968C868034A4168116070470000C5
:101B3000100000203C00002000BFBF2080F311886F
:101B4000BFF34F8FBFF36F8F00BF00BFFEE70000F2
:101B500070B50446002504F0070020B104F007002A
:101B6000C0F10800044400F02DFA1248006820B9C2
:101B7000114820F007000F49086010480068204411
:101B800041F2F871884210D20C48006820440B4999
:101B90000968884209D90748006808490968451852
:101BA0000648006820440549086000F025FB2846E7
:101BB00070BD000004000020B400002000000020E0
:101BC000001F4FF080730360001F21F001030360CA
:101BD000001F034B03601438026020387047000078
:101BE000391B000870B504461448008884421ADB8B
:101BF00013480078B8B913A0FFF758F84FF4FA70FB
:101C000000F088F916A0FFF751F81B49204600F0B4
:101C1000C5F80546FFF74AF8012000F07BF91A20C5
:101C2000FFF736F809E015480088844205DB0448D0
:101C3000007810B912A0FFF739F870BD48000020F5
:101C4000A900002041542B434D47533D222B3739E7
:101C5000363736323131313030220D0A0000000083
:101C6000415454454E54494F4E0D0A534D4F4B4528
:101C70002056414C55452000510000204A000020CC
:101C8000415444222B3739363736323131313030F6
:101C9000220D0A003EB50446FF20002100910123D9
:101CA00024A2CDE9011019461846FEF7E9FDFF20F0
:101CB0000021009108232246CDE9011001210220D4
:101CC000FEF7DEFDFF200021009101231AA2CDE9DD
:101CD000011019460220FEF7D3FD4FF47A7000F090
:101CE00019F9FF2000210091012312A2CDE9011072
:101CF00019461846FEF7C4FDFF2000210091082375
:101D00002246CDE9011001210220FEF7B9FD012094
:101D100002210A4A0323CDE90021029008A20146CC
:101D20000220FEF7ADFD05480088C0F307152846E0
:101D30003EBD000055000000440000007800002077
:101D4000BEFFFF00F0B502462AB93020087000201F
:101D500048700846F0BD0B46002400BF2646671CAD
:101D6000FCB20D4F37F81600002503E06E1CF5B2EB
:101D7000161AB2B28242F9DA05F1300603F8016BA5
:101D8000022CEBDB0020187000E0491C087830289A
:101D9000FBD00846DEE70000EA220008F0B5024664
:101DA0002AB930200870002048700846F0BD0B4664
:101DB000002400BF2646671CFCB20D4F37F8160002
:101DC000002503E06E1CF5B2161AB2B28242F9DAAF
:101DD00005F1300603F8016B042CEBDB00201870D2
:101DE00000E0491C08783028FBD00846DEE70000F8
:101DF000E222000801460A69D1E901309860D1E980
:101E0000010358605068884201D188685060002002
:101E100008611068401E10601068704700F10801EA
:101E200041604FF0FF31816000F10801C160016144
:101E300000210160704700210161704710B5024622
:101E40000B685C1C0CB9106907E002F1080000E0A7
:101E50004068446824689C42FAD944684C604C68E5
:101E6000A160886041600A611468641C146010BD40
:101E700042684A6093688B6093685960916008611A
:101E800003685B1C0360704700BFBF2080F31188AC
:101E9000BFF34F8FBFF36F8F00BF03480068401C34
:101EA00001490860704700000800002006480068EB
:101EB000401E054908600846006820B9002080F3EC
:101EC000118800BF00BF7047080000207047000065
:101ED00003484FF0E0214861072008617047000087
:101EE0003F1901000EE06420FFF7A2FC0446FFF753
:101EF00079FE0548FFF7CEFE0448FFF7CBFE044805
:101F000000F008F8EFE70000F2220008FA220008CB
:101F1000C027090070B50446002544B100F052F80E
:101F200000212046FFF794FC00F066F905463DB914
:101F30004FF0805003490860BFF34F8FBFF36F8F9E
:101F400070BD000004ED00E007E0FFF7CDFBFFF7F8
:101F5000EBFB1B210148FEF7D7FEF6E7FA2200084B
:101F60001CB5114800210B462022CDE900100FA11D
:101F7000104800F085F80446012C14D100BFBF20A2
:101F800080F31188BFF34F8FBFF36F8F00BF4FF007
:101F9000FF3009490860012008490860002008490D
:101FA000086000F053F81CBD4000002049444C4537
:101FB00000000000F51900083C0000202800002067
:101FC0002000002002480068401C0149086070475A
:101FD000440000201848006818B101201749086023
:101FE00028E00020154908601548016800E0491EF6
:101FF00001EB8100134A52F8200008B9012000E0EB
:1020000000200028F3D101EB81020E4B03EB82008C
:1020100042685268426000F108024368934202D16C
:102020004268526842604268D268074B1A600448AE
:10203000016000BF70470000440000203000002015
:1020400024000020AC1800200C00002010B50A4825
:10205000006840F47F00084908600846006840F0C6
:102060007F400860FFF734FF002004490860FEF756
:10207000B7F8002010BD000020ED00E008000020AF
:102080002DE9FF4F85B0804689461746DDE912AB42
:10209000B800FFF75DFD064656B14C20FFF758FD2E
:1020A00004460CB1266304E03046FFF70FFF00E062
:1020B00000247CB10020CDE900ABCDE902403A46D6
:1020C00049464046089BFFF7A9FC2046FFF7FEFB68
:1020D000012501E04FF0FF35284609B0BDE8F08F3B
:1020E0002DE9F041002739480068002862D13848BE
:1020F0000068451C364805608DB93648D0F8008028
:1021000035480068334908603348C0F800803348D8
:102110000068401C31490860FFF7F4FC00BF3048FC
:10212000006885423AD300BF2A480068006808B9B1
:10213000012000E0002020B14FF0FF302849086066
:102140002BE024480068C068C4686668B54202D2C3
:102150002348066021E0201DFFF74CFEA06A18B15D
:1021600004F11800FFF746FE1E49E06A096888423C
:1021700002D91C49E06A0860E16A01EB81011A4A50
:1021800002EB8100211DFFF773FE1849E06A096820
:10219000C96A8842C8D30127C6E700BF1348006850
:1021A000C06A00EB8000104951F82000012800D9D6
:1021B000012704E00E480068401C0D4908600D48E6
:1021C000006800B101273846BDE8F08144000020D6
:1021D0002000002010000020140000203400002007
:1021E0003C00002024000020AC1800200C0000203F
:1021F0002C0000203000002070B500240026FFF7DE
:1022000043FE2E480068401E2C49086008460068BE
:1022100000284ED12A48006800284AD023E02948E7
:10222000C068C46804F11800FFF7E4FD201DFFF743
:10223000E1FD2549E06A0968884202D92249E06A3D
:102240000860E16A01EB8101204A02EB8100211D57
:10225000FFF70EFE1E49E06A0968C96A884202D388
:1022600001201C4908601748006808B9012000E0F7
:1022700000200028D3D00CB1FFF744FC16480568B5
:1022800065B100BFFFF72CFF10B1012011490860B4
:102290006D1E002DF6D100200F4908600D48006822
:1022A00038B1012630070D490860BFF34F8FBFF3E7
:1022B0006F8FFFF7FBFD304670BD0000440000202B
:1022C0001C0000203819002024000020AC18002039
:1022D0000C000020300000202C00002004ED00E065
:1022E0000200E80364000A0001000A000100640023
:1022F000881328FF07213317043F28FFA8CA321785
:10230000039600002423000800000020AC00000019
:102310005C010008D0230008AC000020CC1F0000A6
:10232000780100080000000000000000AAAAAAAA84
:10233000000000000000000000000000000000009D
:10234000000000000000000000000000000000008D
:10235000000000000000000000000000000000007D
:10236000000000000000000000000000BC02E803C4
:10237000000000000000000000000000000000005D
:102380000000000074190020C419002000000000A3
:10239000000000000000000000000000000000003D
:1023A000000000000000000000000000000000002D
:1023B000000000000000000000000000000000001D
:1023C000000000000000000000000000000000000D
:040000050800025598
:00000001FF
