:020000040800F2
:10000000B01F0020550200085D0200085F020008D2
:100010006102000863020008650200080000000099
:10002000000000000000000000000000BD0100080A
:10003000690200080000000001020008110C00081D
:100040006F0200086F0200086F0200086F020008CC
:100050006F0200086F0200086F0200086F020008BC
:100060006F0200086F0200086F0200086F020008AC
:100070006F0200086F0200086F0200086F0200089C
:100080006F0200086F0200086F0200080000000005
:100090000000000000000000000000006F020008E7
:1000A0006F0200086F0200086F0200086F0200086C
:1000B0006F0200086F0200086F0200086F0200085C
:1000C0006F0200086F0200086F0200086F0200084C
:1000D0006F0200086F020008C10C00086F020008E0
:1000E000110300086F0200086F0200080000000002
:1000F0000000000000000000000000000000000000
:1001000000000000000000000000000000000000EF
:1001100000000000000000006F0200086F020008ED
:1001200000F002F800F03AF80AA090E8000C8244CF
:100130008344AAF10107DA4501D100F02FF8AFF2AC
:10014000090EBAE80F0013F0010F18BFFB1A43F0B5
:1001500001031847D0180000F0180000103A24BF1F
:1001600078C878C1FAD8520724BF30C830C144BF1C
:1001700004680C607047000000230024002500265E
:10018000103A28BF78C1FBD8520728BF30C148BFFA
:100190000B6070471FB51FBD10B510BD00F07DF896
:1001A0001146FFF7F7FF00F091FE00F09BF803B453
:1001B000FFF7F2FF03BC00F0A3F80000224B196820
:1001C0000868B0E8F00F80F30988BFF36F8F4FF035
:1001D000000080F311884EF00D0E70470000000003
:1001E00006480068006880F3088862B661B6BFF30D
:1001F0004F8FBFF36F8F00DF00BF00BF08ED00E03F
:10020000EFF30980BFF36F8F0F4B1A6820E9F00FEF
:10021000106008B54FF0BF0080F31188BFF34F8F17
:10022000BFF36F8F01F0E4F94FF0000080F3118805
:10023000BDE8084019680868B0E8F00F80F3098845
:10024000BFF36F8F704700BF0C000020EFF30580F5
:10025000704700000948804709480047FEE7FEE76D
:10026000FEE7FEE7FEE7FEE7FEE7FEE7FEE7FEE766
:1002700004480549054A064B70470000450C000834
:1002800021010008B0190020B01F0020B01B002081
:10029000B01B0020704770477047754600F02CF87F
:1002A000AE4605006946534620F00700854618B063
:1002B00020B5FFF7DDFFBDE820404FF000064FF00E
:1002C00000074FF000084FF0000B21F00701AC468B
:1002D000ACE8C009ACE8C009ACE8C009ACE8C009AA
:1002E0008D46704710B50446AFF300802046BDE848
:1002F0001040FFF75CBF0000004870474C19002019
:1003000001491820ABBEFEE726000200704700003E
:100310000448006840F480600249086001200249F6
:1003200008707047140401407C0000202048406C95
:1003300020F001001E4948640846806D20F001004D
:10034000886508208864C8651A48008820F0400045
:100350001849088017481430008820F040001549DB
:10036000143108800846008840F04000088010489A
:10037000406C40F001000E4948640846806D40F032
:100380000100886500BF0A48006800F40830B0F535
:10039000083FF8D10648406840F4083004494860F6
:1003A00000BF0448008800F040000028F9D07047E2
:1003B00000000240003801402048C06920F00100E0
:1003C0001E49C8610846006B20F001000863082040
:1003D000086248631A48008820F0400018490880E5
:1003E00017481430008820F0400015491431088067
:1003F0000846008840F0400008801048C06940F07E
:1004000001000E49C8610846006B40F00100086316
:1004100000BF0A48006800F40870B0F5087FF8D102
:100420000648406840F408700449486000BF04482A
:10043000008800F040000028F9D07047000002401A
:10044000004800400848806940F00800064988617B
:100450000648006820F44020044908600846006807
:1004600040F480300860704700100240040C0140E6
:100470001848806940F0080016498861084680697C
:1004800040F0010088618915134801611348006834
:1004900040F480601149086010480830006840F45A
:1004A00080600E49083108600C480C38006840F440
:1004B00080600A490C390860282000F01F020121E1
:1004C00091404209920002F1E022C2F8001100BFFF
:1004D0007047000000100240000001400C04014081
:1004E0002848806940F004002649886108468069F0
:1004F00040F4007088612448006820F0F000224930
:1005000008602048406840F400401E4948601F4889
:10051000006840F004001D49086000BF1B480068E7
:1005200000F004000028F9D01848006840F00100ED
:10053000164908600846006820F002000860084676
:10054000006840F4602008600846006840F48010AD
:1005500008600E480830006840F038000B49083148
:1005600008600A482430006820F4700007492431EC
:10057000086006482C30006840F0010003492C3127
:100580000860704700100240000801400824014044
:100590000B48806D20F0010009498865094808660C
:1005A000094848660846806D40F080008865054827
:1005B0001030008840F04000024910310880704738
:1005C00000000240043801406400002013484069E4
:1005D00040F00100114948611148406C20F00100D1
:1005E0000F4948640F48C8640F4808650846406CC6
:1005F00040F0100048640846406C40F080004864B9
:100600000846406C40F002004864064810300088FC
:1006100040F080000349103108807047001002400C
:1006200000000240043801405C0000200B48006BD1
:1006300020F0010009490863094888630948C86334
:100640000846006B40F080000863054810300088C1
:1006500040F040000249103108807047000002401D
:1006600004480040740000201348406940F0010035
:10067000114948611148C06920F001000F49C86163
:100680000F4848620F4888620846C06940F0100071
:10069000C8610846C06940F08000C8610846C0696A
:1006A00040F00200C86106481030008840F0800029
:1006B00003491031088070470010024000000240DA
:1006C000044800406C0000202248806940F48040CB
:1006D000204988610846806940F004008861084626
:1006E000806940F0010088611B48006820F04000EC
:1006F000194908600846006840F080000860084614
:10070000006840F0300008601448008840F008009D
:100710001249088041F64C5010490C390880081DD8
:10072000008840F02000091D08800846008840F03D
:10073000400008800846008840F00800088008460D
:10074000008840F0040008800846008840F400500B
:10075000088070470010024004080140143801402E
:100760002548C06940F400302349C86108468069C3
:1007700040F0040088610846806940F0010088610B
:100780001E48006840F400601C4908600846006884
:1007900040F4407008600846006840F480400860FB
:1007A0000846006820F44050086040F2A93014491F
:1007B0000880081D008840F00800091D08800846D0
:1007C000008840F0040008800846008840F400508B
:1007D00008800846008840F020000880262000F0AD
:1007E0001F02012191404209920002F1E022C2F869
:1007F000001100BF704700000010024000080140D7
:10080000084400402248C06940F480202049C86163
:100810000846806940F0080088610846806940F019
:10082000010088611B48006820F480601949086055
:100830000846006840F4006008600846006840F41C
:10084000407008601448008840F008001249088091
:1008500040F6A66010490C390880081D008840F059
:100860002000091D08800846008840F040000880EC
:100870000846008840F0080008800846008840F0DC
:10088000040008800846008840F400500880704743
:1008900000100240040C01401448004010B51248FA
:1008A000006840F480001049086000BF0E48083816
:1008B000006800F002000028F8D00B4844300068BF
:1008C0000A4908800A490948008800F085FD09A006
:1008D00000F060FA064800F05DFA0D2000F04CFAD6
:1008E0000A2000F049FA10BD082401407E000020D3
:1008F000800000204D5131333520000070B5054691
:10090000012D16D14FF4165000F060FAF02000F0DF
:10091000C9F900BF1648008800F040000028F9D04F
:100920001348001D0088C4B24FF4E13000F04EFAC5
:1009300017E0032D15D14FF4165000F067FAF020A0
:1009400000F036FA00BF0B48008800F04000002895
:10095000F9D00848001D0088C4B24FF4E13000F01F
:1009600055FAF02C01D0012070BD0320FCE70000F7
:1009700000380140004800402DE9F04781460C4610
:1009800015461E46DDE909A8089FB9F1010F06D1F9
:100990002046FFF7B3FF032801D1BDE8F08738E018
:1009A000012C04D128781D4900F040F805E0032C03
:1009B00003D128781A4900F039F86D1C701EC6B2B0
:1009C000012C02D1FFF7B2FC03E0032C01D1FFF7A9
:1009D000F3FCB8F1000F15D1BAF1000F12DD012CB4
:1009E00004D1104800F033F8387005E0032C03D12F
:1009F0000D4800F02CF838707F1CAAF1010000F0BF
:100A0000FF0A06E0B8F1FF0F03D0A8F1010000F0E3
:100A1000FF08002EC4DC0120BFE700005C000020BE
:100A20006C000020640000207400002000220BE015
:100A300000F0010313B1FF230B7001E000230B70E2
:100A4000491C4010531CDAB2082AF1DB70470146FA
:100A50000020002208E040100B78FF2B01D140F06D
:100A60008000491C531CDAB2082AF4DB70470000EE
:100A70002B48006840F480302949086000BF2848AE
:100A8000006800F400300028F9D0132025490860E0
:100A90002348406822494860084640684860084644
:100AA000406848600846406820F470104860084676
:100AB000406820F4803048600846406820F40030E8
:100AC00048600846406840F4803048600846406806
:100AD00040F4003048600846406840F480104860A8
:100AE0000846006840F08070086000BF0C4800684D
:100AF00000F000700028F9D00948406820F0030099
:100B0000074948600846406840F00200486000BF5E
:100B10000348406800F00C000828F9D17047000035
:100B2000001002400020024010B500F001F810BD96
:100B30000CB50020019000903348006840F48030EC
:100B40003149086000BF3048006800F40030009070
:100B50000198401C0190009818B90198B0F5A06F59
:100B6000F1D12948006800F4003010B10120009054
:100B700001E0002000900098012843D1234800683C
:100B800040F01000214908600846006820F003008A
:100B900008600846006840F0020008601A48406893
:100BA000194948600846406848600846406840F473
:100BB000806048600846406820F47C104860084621
:100BC000406840F4E81048600846006840F08070D3
:100BD000086000BF0C48006800F000700028F9D0E1
:100BE0000948406820F0030007494860084640680B
:100BF00040F00200486000BF0348406800F00C006D
:100C00000828F9D10CBD000000100240002002406D
:100C100010B500BFBF2080F31188BFF34F8FBFF323
:100C20006F8F00BF00F06EFD18B14FF08050044987
:100C3000086000BF002080F3118800BF10BD0000D5
:100C400004ED00E010B51348006840F001001149C0
:100C5000086008464068104908400E494860084648
:100C600000680E4908400B4908600846006820F4F7
:100C7000802008600846406820F4FE0048604FF479
:100C80001F008860FFF750FF4FF0006004490860C4
:100C900010BD0000001002400000FFF8FFFFF6FE4C
:100CA00008ED00E000BF0549098801F04001002976
:100CB000F9D00249091D0880704700000038014042
:100CC00010B52648008800F02000002844D02348B2
:100CD000001D008861280FD12148006840F4805031
:100CE0001F4908601FA000F055F80D2000F044F8DF
:100CF0000A2000F041F82FE01848001D0088412824
:100D00000FD11AA000F046F81548006840F0805056
:100D1000134908600D2000F02FF80A2000F02CF88D
:100D20001AE00E48001D0088422809D10DA000F0ED
:100D300031F80D2000F020F80A2000F01DF80BE03B
:100D40000648001D0088722806D1FF200949087056
:100D500000F0CCFAFFF7A2FD10BD000000440040F7
:100D6000100C0140443132204F4E000044313220FB
:100D70004F4646004A00002000BF0549098801F09F
:100D800040010029F9D00249091D08807047000080
:100D90000044004010B50246002305E019465C1CE3
:100DA000E3B2505CFFF7E8FFD05C0028F6D110BD3D
:100DB00000BF0549098801F040010029F9D0024926
:100DC000091D088070470000004800400D4909884F
:100DD00021F008010B4A11801146098821F0040115
:100DE00011800949B1FBF0F1121F1180111D098812
:100DF00041F00801121D11801146098841F00401DB
:100E0000118070470C38014000A24A040D4909883E
:100E100021F008010B4A11801146098821F00401D4
:100E200011800949B1FBF0F1121F1180111D0988D1
:100E300041F00801121D11801146098841F004019A
:100E4000118070470C480040005125020EB5022069
:100E50000621164A0923CDE90021029014A203219C
:100E60000120FFF789FD114903C9144A5040084386
:100E700006D00E48D0E90010114B5940014313D160
:100E80001048006840F480500E4908600E48008801
:100E900000F046FB0B48006840F0805009490860AC
:100EA0000021024A116051600EBD00005000002078
:100EB00033FFFFFFFFFFFFFFFF000000D628060102
:100EC0004EBA0501100C01405A0000201CB5FFF776
:100ED000CFFDFFF7CDFAFFF7B5FAFFF701FBFFF7FC
:100EE000F3FBFFF73DFCFFF78DFCFFF76FFBFFF710
:100EF0004FFBFFF7B9FBFFF799FB002001210346E9
:100F00002022CDE900100E490E4800F0CBFB002056
:100F1000012103462022CDE900100B490B4800F0C7
:100F2000C1FB0020012103462022CDE90010084921
:100F3000084800F0B7FB00F021FB00BFFEE700000F
:100F400014190008691600087019000855150008E2
:100F5000C0190008711500082DE9F04105460E463C
:100F60001648076816480068001D00F061FA681C02
:100F700038B936B112480168091D124800F096FAD6
:100F80001AE07C190E4800684460BC4207D20C4845
:100F90000168091D0C48006800F06EFA0CE0084872
:100FA0000168091D0948006800F066FA08480068F1
:100FB000844201D206480460BDE8F0812000002090
:100FC0000C00002038190020140000201000002020
:100FD0003C00002010B5044600F074FA2248006876
:100FE000401C214908602148006840B91F4804603E
:100FF0000846006801280DD100F0D4F80AE01C482A
:10100000006838B919480068C06AE16A884201D8A6
:101010001648046017480068401C164908601649C5
:10102000E06A0968884202D91349E06A0860E16A07
:1010300001EB8101114A02EB8100211D00F036FA1B
:1010400000F052FA0A48006868B108480068C06AAF
:10105000E16A884207D24FF0805009490860BFF327
:101060004F8FBFF36F8F10BD1C0000200C000020BD
:1010700028000020380000202400002084180020D0
:1010800004ED00E070B523E000F0AAFA1348006810
:1010900008B9012000E00020054600F0BFFBBDB903
:1010A00000F010FA0D48C068C468201D00F0C0F9B7
:1010B0000B480068401E0A4908600A480068401E44
:1010C0000849086000F010FA204600F00DF800BF53
:1010D000044800680028D7D170BD00002419002002
:1010E0001C0000201800002010B50446206B00F002
:1010F0000BFA204600F008FA10BD000000BFFFF711
:10110000C1FF064800680128F9D94FF08050044912
:101110000860BFF34F8FBFF36F8FF0E78418002094
:1011200004ED00E02DE9FF5F80460E469146DDE9C3
:101130000E7A109CA9F10100216B01EB800B2BF0C2
:10114000070B002507E0715D04F134004155705D27
:1011500000B902E06D1C102DF5D300BF0021432023
:101160000155052F00D30427E762201D00F081F907
:1011700004F1180000F07DF92461C7F10500A061B9
:1011800064620020606484F8480041465846039A2F
:1011900000F09AF82060BAF1000F01D0CAF80040C0
:1011A000BDE8FF9F10B5002407E004EB84010F4A5F
:1011B00002EB810000F050F9641C052CF5D30C48BB
:1011C00000F04AF90B4800F047F90B4800F044F9E9
:1011D0000A4800F041F90A4800F03EF9044809497C
:1011E000086004480849086010BD00008418002009
:1011F000E8180020FC1800201019002024190020F5
:101200003819002010000020140000200A49096845
:10121000096809B9012100E0002121B14FF0FF3137
:10122000064A116006E004490968C968C868034AAB
:101230004168116070470000100000203C00002051
:1012400000BFBF2080F31188BFF34F8FBFF36F8FB4
:1012500000BF00BFFEE7000070B50446002504F0A3
:10126000070020B104F00700C0F10800044400F0BA
:10127000B7F91248006820B9114820F007000F495B
:10128000086010480068204441F2F871884210D28A
:101290000C48006820440B490968884209D907486E
:1012A000006808490968451806480068204405494F
:1012B000086000F0B3FA284670BD0000040000206A
:1012C0008C00002000000020001F4FF0807303609E
:1012D000001F21F001030360001F034B036014385B
:1012E0000260203870470000411200083EB5FF2020
:1012F0000021009102231AA2CDE901100121084624
:10130000FFF73AFB4FF47A7000F00AF90220154A11
:10131000CDE90020042314A2012102900846FFF722
:101320002BFB10480088C0F3071411480078A04236
:1013300003D10F480078FF2811D10E49204600F054
:101340001FF80DA0FFF726FD0A48FFF723FD0D202B
:10135000FFF712FD0A20FFF70FFD054804703EBDA0
:10136000CC44000048000020CCBEFFFF000000007D
:101370004A0000205800002074656D7020000000B5
:10138000F0B502462AB9302008700020487008469F
:10139000F0BD0B46002400BF2646671CFCB20D4F73
:1013A00037F81600002503E06E1CF5B2161AB2B22B
:1013B0008242F9DA05F1300603F8016B022CEBDB0F
:1013C0000020187000E0491C08783028FBD008463F
:1013D000DEE7000004190008F0B502462AB9302003
:1013E0000870002048700846F0BD0B46002400BF7E
:1013F0002646671CFCB20D4F37F81600002503E0A7
:101400006E1CF5B2161AB2B28242F9DA05F1300654
:1014100003F8016B052CEBDB0020187000E0491C81
:1014200008783028FBD00846DEE7000008190008DD
:1014300001460A69D1E901309860D1E90103586099
:101440005068884201D188685060002008611068A7
:10145000401E10601068704700F1080141604FF0B5
:10146000FF31816000F10801C1600161002101606C
:10147000704700210161704710B502460B685C1C83
:101480000CB9106907E002F1080000E04068446808
:1014900024689C42FAD944684C604C68A16088601A
:1014A00041600A611468641C146010BD42684A609F
:1014B00093688B60936859609160086103685B1C56
:1014C0000360704700BFBF2080F31188BFF34F8FC8
:1014D000BFF36F8F00BF03480068401C01490860DC
:1014E000704700000800002006480068401E0549BB
:1014F00008600846006820B9002080F3118800BF0A
:1015000000BF7047080000207047000003484FF0FC
:10151000E021486107200861704700003F19010081
:1015200070B50446002544B100F05AF80021204669
:10153000FFF712FD00F072F905463DB94FF08050FB
:1015400003490860BFF34F8FBFF36F8F70BD00007A
:1015500004ED00E000BF054800780028FBD0FFF74D
:1015600075FC002001490870F5E700007C000020B0
:1015700003E0FFF7BBFEFFF791F9FAE71CB511484E
:1015800000210B462022CDE900100FA1104800F0E9
:1015900089F80446012C14D100BFBF2080F31188C4
:1015A000BFF34F8FBFF36F8F00BF4FF0FF3009497C
:1015B000086001200849086000200849086000F020
:1015C00057F81CBD4000002049444C450000000075
:1015D000FD1000083C000020280000202000002012
:1015E00002480068401C0149086070474400002020
:1015F0001848006818B101201749086028E0002049
:10160000154908601548016800E0491E01EB81009A
:10161000134A52F8200008B9012000E000200028F9
:10162000F3D101EB81020E4B03EB8200426852685A
:10163000426000F108024368934202D14268526856
:1016400042604268D268074B1A600448016000BFDC
:1016500070470000440000203000002024000020DB
:10166000841800200C00002001E0FFF729FBFCE7B4
:1016700010B50A48006840F47F0008490860084631
:10168000006840F07F400860FFF740FF00200449F9
:101690000860FEF7A5FD002010BD000020ED00E071
:1016A000080000202DE9FF4F85B080468946174687
:1016B000DDE912ABB800FFF7CFFD064656B14C206E
:1016C000FFF7CAFD04460CB1266304E03046FFF77D
:1016D0001BFF00E000247CB10020CDE900ABCDE988
:1016E00002403A4649464046089BFFF71BFD20460C
:1016F000FFF770FC012501E04FF0FF35284609B0E7
:10170000BDE8F08F2DE9F041002739480068002836
:1017100062D138480068451C364805608DB93648A6
:10172000D0F8008035480068334908603348C0F875
:10173000008033480068401C31490860FFF766FDAF
:1017400000BF3048006885423AD300BF2A4800688D
:10175000006808B9012000E0002020B14FF0FF3000
:10176000284908602BE024480068C068C46866689F
:10177000B54202D22348066021E0201DFFF758FE43
:10178000A06A18B104F11800FFF752FE1E49E06A82
:101790000968884202D91C49E06A0860E16A01EBE5
:1017A00081011A4A02EB8100211DFFF77FFE1849D3
:1017B000E06A0968C96A8842C8D30127C6E700BF42
:1017C00013480068C06A00EB8000104951F82000FF
:1017D000012800D9012704E00E480068401C0D498B
:1017E00008600D48006800B101273846BDE8F08167
:1017F00044000020200000201000002014000020E1
:10180000340000203C000020240000208418002028
:101810000C0000202C0000203000002070B50024B7
:101820000026FFF74FFE2E480068401E2C49086036
:101830000846006800284ED12A48006800284AD08F
:1018400023E02948C068C46804F11800FFF7F0FDE0
:10185000201DFFF7EDFD2549E06A0968884202D99D
:101860002249E06A0860E16A01EB8101204A02EB4B
:101870008100211DFFF71AFE1E49E06A0968C96A46
:10188000884202D301201C4908601748006808B943
:10189000012000E000200028D3D00CB1FFF7B6FCF7
:1018A0001648056865B100BFFFF72CFF10B1012095
:1018B000114908606D1E002DF6D100200F49086007
:1018C0000D48006838B1012630070D490860BFF3A4
:1018D0004F8FBFF36F8FFFF707FE304670BD0000DC
:1018E000440000201C0000201019002024000020CB
:1018F000841800200C000020300000202C00002064
:1019000004ED00E00A0001001027E80364000A006B
:1019100001000000D0BED0B1D180D0B0D0B1D0BED7
:10192000D182D0BAD0B020D0BFD180D0B5D180D1B3
:101930008BD0B2D0B0D0BDD0B8D0B92028D0B7D0DD
:10194000B0D0BFD180D0BED181D0BED0B22920D0FE
:10195000BED18220D09ED0A120416E64726F696496
:1019600020D0BFD0BE205553415254320000000059
:10197000D0BED0B1D180D0B0D0B1D0BED182D0BA9B
:10198000D0B020455854492028D0B2D0BDD0B5D1D0
:1019900088D0BDD0B5D0B3D0BE20D0BFD180D0B517
:1019A000D180D18BD0B2D0B0D0BDD0B8D18F2920CA
:1019B000D0BED1822069427574746F6E0000000041
:1019C000D0B2D18BD0B7D0BED0B220D184D183D009
:1019D000BDD0BAD186D0B8D0B920D187D0B5D1800A
:1019E000D0B5D0B720D0BED0BFD180D0B5D0B4D084
:1019F000B5D0BBD191D0BDD0BDD18BD0B920D0BF97
:101A0000D180D0BED0BCD0B5D0B6D183D182D0BE2B
:101A1000D0BA20D0B2D180D0B5D0BCD0B5D0BDD056
:101A2000B8000000441A00080000002084000000F4
:101A30005C010008C81A0008840000202C1F000068
:101A4000780100080000000000000000AAAAAAAA6D
:101A50000000000000000000000000000000000086
:101A60000000000000000000000000000000000076
:101A70000000000000000000000000000000000066
:101A80000000000000000000000000000000000056
:101A900000000000000000000000000000008813AB
:101AA0000000000000000000000000000000000036
:101AB0000000000000000000000000000000000026
:081AC00000000000000000001E
:040000050800025598
:00000001FF
