:020000040800F2
:10000000981F0020550200085D0200085F020008EA
:100010006102000863020008650200080000000099
:10002000000000000000000000000000BD0100080A
:10003000690200080000000001020008050800082D
:100040006F0200086F0200086F0200086F020008CC
:100050006F0200086F0200086F0200086F020008BC
:100060006F0200086F0200086F0200086F020008AC
:100070006F0200086F0200086F0200086F0200089C
:100080006F0200086F0200086F0200080000000005
:100090000000000000000000000000006F020008E7
:1000A0006F0200086F0200086F0200086F0200086C
:1000B0006F0200086F0200086F0200086F0200085C
:1000C0006F0200086F0200086F0200086F0200084C
:1000D0006F0200086F020008B50800086F020008F0
:1000E0006F0200086F0200086F02000800000000A5
:1000F0000000000000000000000000000000000000
:1001000000000000000000000000000000000000EF
:1001100000000000000000006F0200086F020008ED
:1001200000F002F800F03AF80AA090E8000C8244CF
:100130008344AAF10107DA4501D100F02FF8AFF2AC
:10014000090EBAE80F0013F0010F18BFFB1A43F0B5
:1001500001031847C8130000E8130000103A24BF39
:1001600078C878C1FAD8520724BF30C830C144BF1C
:1001700004680C607047000000230024002500265E
:10018000103A28BF78C1FBD8520728BF30C148BFFA
:100190000B6070471FB51FBD10B510BD00F07DF896
:1001A0001146FFF7F7FF00F039FC00F09BF803B4AD
:1001B000FFF7F2FF03BC00F0A3F80000224B196820
:1001C0000868B0E8F00F80F30988BFF36F8F4FF035
:1001D000000080F311884EF00D0E70470000000003
:1001E00006480068006880F3088862B661B6BFF30D
:1001F0004F8FBFF36F8F00DF00BF00BF08ED00E03F
:10020000EFF30980BFF36F8F0F4B1A6820E9F00FEF
:10021000106008B54FF0BF0080F31188BFF34F8F17
:10022000BFF36F8F00F09AFF4FF0000080F311884A
:10023000BDE8084019680868B0E8F00F80F3098845
:10024000BFF36F8F704700BF0C000020EFF30580F5
:10025000704700000948804709480047FEE7FEE76D
:10026000FEE7FEE7FEE7FEE7FEE7FEE7FEE7FEE766
:1002700004480549054A064B704700003908000844
:100280002101000898190020981F0020981B0020C9
:10029000981B0020704770477047754600F02CF897
:1002A000AE4605006946534620F00700854618B063
:1002B00020B5FFF7DDFFBDE820404FF000064FF00E
:1002C00000074FF000084FF0000B21F00701AC468B
:1002D000ACE8C009ACE8C009ACE8C009ACE8C009AA
:1002E0008D46704710B50446AFF300802046BDE848
:1002F0001040FFF75CBF0000004870473419002031
:1003000001491820ABBEFEE726000200704700003E
:100310002048406C20F001001E4948640846806D6A
:1003200020F00100886508208864C8651A480088A4
:1003300020F040001849088017481430008820F049
:1003400040001549143108800846008840F04000FC
:1003500008801048406C40F001000E49486408468F
:10036000806D40F00100886500BF0A48006800F415
:100370000830B0F5083FF8D10648406840F408302E
:100380000449486000BF0448008800F0400000288D
:10039000F9D0704700000240003801400B48806DE2
:1003A00020F001000949886509480866094848663F
:1003B0000846806D40F08000886505481030008850
:1003C00040F04000024910310880704700000240B0
:1003D00004380140610000201348406940F00100EA
:1003E000114948611148406C20F001000F494864F0
:1003F0000F48C8640F4808650846406C40F010007C
:1004000048640846406C40F0800048640846406CF0
:1004100040F00200486406481030008840F0800038
:10042000034910310880704700100240000002406C
:1004300004380140590000202248806940F480407F
:10044000204988610846806940F0040088610846B8
:10045000806940F0010088611B48006820F040007E
:10046000194908600846006840F0800008600846A6
:10047000006840F0300008601448008840F0080030
:100480001249088041F64C5010490C390880081D6B
:10049000008840F02000091D08800846008840F0D0
:1004A000400008800846008840F0080008800846A0
:1004B000008840F0040008800846008840F400509E
:1004C00008807047001002400408014014380140C1
:1004D0002548C06940F400302349C8610846806956
:1004E00040F0040088610846806940F0010088619E
:1004F0001E48006840F400601C4908600846006817
:1005000040F4407008600846006840F4804008608D
:100510000846006820F44050086040F2A9301449B1
:100520000880081D008840F00800091D0880084662
:10053000008840F0040008800846008840F400501D
:1005400008800846008840F020000880262000F03F
:100550001F02012191404209920002F1E022C2F8FB
:10056000001100BF70470000001002400008014069
:100570000844004010B54FF4165000F001FAF02086
:1005800000F08AF900BF0A48008800F04000002807
:10059000F9D00748001D0088C4B24FF4E13000F0E4
:1005A000EFF9F02C01D0012010BD0320FCE7000082
:1005B000003801402DE9F04780460C4615461E469E
:1005C000DDE90897B8F1010F05D1FFF7D3FF032844
:1005D00001D1BDE8F0871AE020780F4900F020F83B
:1005E000641C681EC5B2FFF793FE67B9B9F1000F2E
:1005F00009DD0A4800F025F83070761CA9F10100E9
:1006000000F0FF0903E0FF2F01D0781EC7B2002DD4
:10061000E2DC0120DDE7000059000020610000203D
:1006200000220BE000F0010313B1FF230B7001E087
:1006300000230B70491C4010531CDAB2082AF1DB6E
:10064000704701460020002208E040100B78FF2B85
:1006500001D140F08000491C531CDAB2082AF4DBB7
:10066000704700002B48006840F48030294908603A
:1006700000BF2848006800F400300028F9D013209B
:100680002549086023484068224948600846406878
:1006900048600846406848600846406820F470108A
:1006A00048600846406820F480304860084640684A
:1006B00020F4003048600846406840F480304860CC
:1006C0000846406840F4003048600846406840F4FE
:1006D000801048600846006840F08070086000BFE5
:1006E0000C48006800F000700028F9D00948406804
:1006F00020F00300074948600846406840F00200C7
:10070000486000BF0348406800F00C000828F9D199
:1007100070470000001002400020024010B500F0B9
:1007200001F810BD0CB5002001900090334800681E
:1007300040F480303149086000BF3048006800F460
:10074000003000900198401C0190009818B9019861
:10075000B0F5A06FF1D12948006800F4003010B165
:100760000120009001E0002000900098012843D172
:100770002348006840F010002149086008460068DE
:1007800020F0030008600846006840F0020008609E
:100790001A48406819494860084640684860084659
:1007A000406840F4806048600846406820F47C104F
:1007B00048600846406840F4E81048600846006811
:1007C00040F08070086000BF0C48006800F00070C6
:1007D0000028F9D00948406820F003000749486024
:1007E0000846406840F00200486000BF0348406887
:1007F00000F00C000828F9D10CBD000000100240E8
:100800000020024010B500BFBF2080F31188BFF365
:100810004F8FBFF36F8F00BF00F02AFD18B14FF06C
:1008200080500449086000BF002080F3118800BF99
:1008300010BD000004ED00E010B51348006840F062
:1008400001001149086008464068104908400E49F7
:100850004860084600680E4908400B490860084691
:10086000006820F4802008600846406820F4FE00FC
:1008700048604FF41F008860FFF750FF4FF00060A2
:100880000449086010BD0000001002400000FFF89D
:10089000FFFFF6FE08ED00E000BF0549098801F002
:1008A00040010029F9D00249091D08807047000065
:1008B0000038014010B51D48008800F020000028D5
:1008C00033D01A48001D0088412809D118A000F033
:1008D00049F80D2000F038F80A2000F035F824E03F
:1008E0001248001D0088612809D113A000F03AF8D1
:1008F0000D2000F029F80A2000F026F815E00B483A
:10090000001D0088422809D10DA000F02BF80D2011
:1009100000F01AF80A2000F017F806E00348001D5E
:100920000088722801D100F0DDFA10BD00440040BB
:10093000443130204F4E0000443131204F4E0000F2
:10094000443132204F4E000000BF0549098801F0B4
:1009500040010029F9D00249091D088070470000B4
:100960000044004010B50246002305E019465C1C17
:10097000E3B2505CFFF7E8FFD05C0028F6D110BD71
:100980000D49098821F008010B4A11801146098898
:1009900021F0040111800949B1FBF0F1121F11800F
:1009A000111D098841F00801121D118011460988A6
:1009B00041F00401118070470C38014000A24A0444
:1009C0001CB5022006210E4B0922CDE900100DA115
:1009D0000120FFF7EFFD0A48D0E900100C4B594009
:1009E000014308D10BA0FFF7BDFF0D20FFF7ACFFBF
:1009F0000A20FFF7A9FF41F2883000F053FB1CBD2D
:100A00005000002033FFFFFFFFFFFFFFFF0000004B
:100A1000D628060169427574746F6E001CB5FFF725
:100A200021FEFFF709FDFFF753FDFFF7D5FCFFF7A8
:100A3000B5FC0020012103462022CDE900100EA1C3
:100A40001C4800F0E5FB0020012103462022CDE9EF
:100A500000101949194800F0DBFB00200121034672
:100A60002022CDE900101649164800F0D1FB00F015
:100A70003BFB00BFFEE70000D0B8D0B7D0BCD0B57C
:100A8000D180D0B5D0BDD0B8D0B520D182D0B5D02E
:100A9000BCD0BFD0B5D180D0B0D182D183D180D1EC
:100AA0008B2044533138423230202820312D576971
:100AB00072652900E110000874140008D5110008BF
:100AC000D0140008D91000083EB500200290FF2085
:100AD00000210B460222CDE9001016A10120FFF7EC
:100AE00069FD4FF47A7000F0DDFA0220009002AB4D
:100AF000042211A101900120FFF75CFDBDF8080060
:100B0000C0F307140E480078A04211D00C480470BE
:100B10000C49204600F022FA0BA0FFF723FF0948FA
:100B2000FFF720FF0D20FFF70FFF0A20FFF70CFF54
:100B30003EBD0000CC440000CCBEFFFF0000000022
:100B4000480000205800002074656D7020000000EF
:100B50002DE9F04105460E4616480768164800681C
:100B6000001D00F027FA681C38B936B11248016838
:100B7000091D124800F05CFA1AE07C190E48006862
:100B80004460BC4207D20C480168091D0C4800684B
:100B900000F034FA0CE008480168091D09480068B3
:100BA00000F02CFA08480068844201D2064804602C
:100BB000BDE8F081200000200C000020201900205A
:100BC00014000020100000203C00002010B5044656
:100BD00000F03AFA22480068401C21490860214888
:100BE000006840B91F4804600846006801280DD11C
:100BF00000F0D4F80AE01C48006838B919480068C9
:100C0000C06AE16A884201D8164804601748006843
:100C1000401C164908601649E06A0968884202D9F2
:100C20001349E06A0860E16A01EB8101114A02EBB5
:100C30008100211D00F0FCF900F018FA0A48006854
:100C400068B108480068C06AE16A884207D24FF07C
:100C5000805009490860BFF34F8FBFF36F8F10BDFD
:100C60001C0000200C00002028000020380000207C
:100C7000240000206C18002004ED00E070B523E093
:100C800000F064FA1348006808B9012000E0002071
:100C9000054600F079FBBDB900F0D6F90D48C068F3
:100CA000C468201D00F086F90B480068401E0A4900
:100CB00008600A480068401E0849086000F0D6F93C
:100CC000204600F00DF800BF044800680028D7D186
:100CD00070BD00000C1900201C000020180000202E
:100CE00010B50446206B00F0D1F9204600F0CEF993
:100CF00010BD000000BFFFF7C1FF064800680128D3
:100D0000F9D94FF0805004490860BFF34F8FBFF30B
:100D10006F8FF0E76C18002004ED00E02DE9FF5F15
:100D200080460E469146DDE90E7A109CA9F101003D
:100D3000216B01EB800B2BF0070B002507E0715DA9
:100D400004F134004155705D00B902E06D1C102DB6
:100D5000F5D300BF002143200155052F00D3042700
:100D6000E762201D00F047F904F1180000F043F994
:100D70002461C7F10500A06164620020606484F80A
:100D8000480041465846039A00F09AF82060BAF1AC
:100D9000000F01D0CAF80040BDE8FF9F10B5002445
:100DA00007E004EB84010F4A02EB810000F016F922
:100DB000641C052CF5D30C4800F010F90B4800F02A
:100DC0000DF90B4800F00AF90A4800F007F90A4843
:100DD00000F004F90448094908600448084908601B
:100DE00010BD00006C180020D0180020E41800206E
:100DF000F81800200C1900202019002010000020F5
:100E0000140000200A490968096809B9012100E0B5
:100E1000002121B14FF0FF31064A116006E004497C
:100E20000968C968C868034A4168116070470000D2
:100E3000100000203C00002000BFBF2080F311887C
:100E4000BFF34F8FBFF36F8F00BF00BFFEE70000FF
:100E500070B50446002504F0070020B104F0070037
:100E6000C0F10800044400F071F91248006820B98C
:100E7000114820F007000F4908601048006820441E
:100E800041F2F871884210D20C48006820440B49A6
:100E90000968884209D9074800680849096845185F
:100EA0000648006820440549086000F06DFA2846AD
:100EB00070BD00000400002074000020000000202D
:100EC000001F4FF080730360001F21F001030360D7
:100ED000001F034B03601438026020387047000085
:100EE000390E00083EB500200290FF2000210B467D
:100EF0000222CDE9001013A10120FFF75BFB4FF4A4
:100F00007A7000F0CFF80220009002AB04220EA10C
:100F100001900120FFF74EFBBDF80800C0F3071455
:100F20000B49204600F01AF80AA0FFF71BFD0848FD
:100F3000FFF718FD0D20FFF707FD0A20FFF704FD5E
:100F40003EBD0000CC440000CCBEFFFF000000000E
:100F50005800002054656D7020000000F0B5024676
:100F60002AB930200870002048700846F0BD0B46B2
:100F7000002400BF2646671CFCB20D4F37F8160050
:100F8000002503E06E1CF5B2161AB2B28242F9DAFD
:100F900005F1300603F8016B022CEBDB0020187022
:100FA00000E0491C08783028FBD00846DEE7000046
:100FB0007014000801460A69D1E901309860D1E94E
:100FC000010358605068884201D188685060002051
:100FD00008611068401E10601068704700F1080139
:100FE00041604FF0FF31816000F10801C160016193
:100FF00000210160704700210161704710B5024671
:101000000B685C1C0CB9106907E002F1080000E0F5
:101010004068446824689C42FAD944684C604C6833
:10102000A160886041600A611468641C146010BD8E
:1010300042684A6093688B60936859609160086168
:1010400003685B1C0360704700BFBF2080F31188FA
:10105000BFF34F8FBFF36F8F00BF03480068401C82
:101060000149086070470000080000200648006839
:10107000401E054908600846006820B9002080F33A
:10108000118800BF00BF70470800002070470000B3
:1010900003484FF0E02148610720086170470000D5
:1010A0003F19010070B50446002544B100F04EF828
:1010B00000212046FFF74CFD00F066F905463DB9DA
:1010C0004FF0805003490860BFF34F8FBFF36F8F1D
:1010D00070BD000004ED00E001E0FFF771FCFCE7EB
:1010E00001E0FFF7F1FCFCE71CB5114800210B46BD
:1010F0002022CDE900100FA1104800F089F8044625
:10110000012C14D100BFBF2080F31188BFF34F8F93
:10111000BFF36F8F00BF4FF0FF3009490860012017
:101120000849086000200849086000F057F81CBD15
:101130004000002049444C4500000000F50C000828
:101140003C00002028000020200000200248006809
:10115000401C01490860704744000020184800689E
:1011600018B101201749086028E0002015490860DF
:101170001548016800E0491E01EB8100134A52F84E
:10118000200008B9012000E000200028F3D101EB85
:1011900081020E4B03EB820042685268426000F10C
:1011A00008024368934202D1426852684260426832
:1011B000D268074B1A600448016000BF7047000006
:1011C0004400002030000020240000206C18002083
:1011D0000C00002001E0FFF76DFBFCE710B50A48AA
:1011E000006840F47F00084908600846006840F045
:1011F0007F400860FFF74CFF002004490860FEF7BD
:10120000EFFF002010BD000020ED00E008000020EE
:101210002DE9FF4F85B0804689461746DDE912ABC0
:10122000B800FFF715FE064656B14C20FFF710FE3A
:1012300004460CB1266304E03046FFF727FF00E0C8
:1012400000247CB10020CDE900ABCDE902403A4654
:1012500049464046089BFFF761FD2046FFF7B6FC74
:10126000012501E04FF0FF35284609B0BDE8F08FB9
:101270002DE9F041002739480068002862D138483C
:101280000068451C364805608DB93648D0F80080A6
:1012900035480068334908603348C0F80080334857
:1012A0000068401C31490860FFF7ACFD00BF3048C2
:1012B000006885423AD300BF2A480068006808B930
:1012C000012000E0002020B14FF0FF3028490860E5
:1012D0002BE024480068C068C4686668B54202D242
:1012E0002348066021E0201DFFF764FEA06A18B1C4
:1012F00004F11800FFF75EFE1E49E06A09688842A3
:1013000002D91C49E06A0860E16A01EB81011A4ACE
:1013100002EB8100211DFFF78BFE1849E06A096886
:10132000C96A8842C8D30127C6E700BF13480068CE
:10133000C06A00EB8000104951F82000012800D954
:10134000012704E00E480068401C0D4908600D4864
:10135000006800B101273846BDE8F0814400002054
:101360002000002010000020140000203400002085
:101370003C000020240000206C1800200C000020FD
:101380002C0000203000002070B500240026FFF75C
:101390005BFE2E480068401E2C4908600846006825
:1013A00000284ED12A48006800284AD023E0294866
:1013B000C068C46804F11800FFF7FCFD201DFFF7AA
:1013C000F9FD2549E06A0968884202D92249E06AA4
:1013D0000860E16A01EB8101204A02EB8100211DD6
:1013E000FFF726FE1E49E06A0968C96A884202D3EF
:1013F00001201C4908601748006808B9012000E076
:1014000000200028D3D00CB1FFF7FCFC164805687B
:1014100065B100BFFFF72CFF10B101201149086032
:101420006D1E002DF6D100200F4908600D480068A0
:1014300038B1012630070D490860BFF34F8FBFF365
:101440006F8FFFF713FE304670BD00004400002090
:101450001C000020F8180020240000206C18002038
:101460000C000020300000202C00002004ED00E0E3
:101470000A000100D0BED0B1D180D0B0D0B1D0BE72
:10148000D182D0BAD0B020D0BFD180D0B5D180D158
:101490008BD0B2D0B0D0BDD0B8D0B92028D0B7D082
:1014A000B0D0BFD180D0BED181D0BED0B22920D0A3
:1014B000BED18220D09ED0A120416E64726F69643B
:1014C00020D0BFD0BE2055534152543200000000FE
:1014D000692D427574746F6E202D20D0BFD0BED0A0
:1014E000BBD183D187D0B5D0BDD0B8D0B520D18104
:1014F000D0B5D180D0B8D0B9D0BDD0BED0B3D0BED9
:1015000020D0BDD0BED0BCD0B5D180D0B020D0BA14
:10151000D0BBD18ED187D0B0000000003C150008B0
:10152000000000206C0000005C010008A815000805
:101530006C0000202C1F0000780100080000000053
:1015400000000000AAAAAAAA0000000000000000F3
:10155000000000000000000000000000000000008B
:10156000000000000000000000000000000000007B
:10157000000000000000000000000000000000006B
:10158000000000000000000000000000000000005B
:10159000000000000000000000000000000000004B
:0815A000000000000000000043
:040000050800025598
:00000001FF
